:020000040800F2
:10000000380E002035020008DF1E0008A11A000883
:10001000DD1E0008B9050008A12500080000000049
:10002000000000000000000000000000E31E0008C7
:10003000BB05000800000000E11E0008E51E0008E6
:100040004F0200084F0200084F0200084F0200084C
:100050004F0200084F0200084F0200084F0200083C
:100060004F0200084F0200084F0200084F0200082C
:100070004F0200084F0200084F0200084F0200081C
:100080004F0200084F0200084F0200080000000065
:100090000000000000000000000000004F02000807
:1000A0004F0200084F0200084F0200084F020008EC
:1000B0004F0200084F0200084F0200084F020008DC
:1000C0004F0200084F0200084F0200084F020008CC
:1000D0004F0200084F0200084F0200080000000015
:1000E0004F0200084F0200084F0200080000000005
:1000F0000000000000000000000000004F020008A7
:10010000000000004F0200084F0200084F020008E4
:1001100000000000000000000000000000000000DF
:100120004F0200084F0200084F0200084F0200086B
:100130004F02000800000000000000000000000066
:100140000000000000000000000000004F02000856
:100150004F0200084F0200084F0200084F0200083B
:100160004F0200084F0200080000000000000000DD
:10017000000000000000000000000000000000007F
:10018000000000004F020008000000000000000016
:100190004F02000800F002F800F03CF80AA090E8D6
:1001A000000C82448344AAF10107DA4501D100F032
:1001B00031F8AFF2090EBAE80F0013F0010F18BFC3
:1001C000FB1A43F001031847542400007424000074
:1001D000103A24BF78C878C1FAD8520724BF30C873
:1001E00030C144BF04680C60704700000023002445
:1001F00000250026103A28BF78C1FBD8520728BF37
:1002000030C148BF0B6070471FB502F0F5F91FBD44
:1002100010B510BD00F001F91146FFF7F5FF02F02F
:10022000D0F900F01FF903B4FFF7F2FF03BC00F0B0
:1002300027F900000948804709480047FEE7FEE724
:10024000FEE7FEE7FEE7FEE7FEE7FEE7FEE7FEE786
:1002500004480549054A064B70470000811F000805
:100260009501000838080020380E0020380A0020C8
:10027000380A002053EA020C00F069802DE9F04BA7
:100280004FF00006002B1FBFB3FA83F503FA05F405
:1002900024FA05F65E4012BF1643B2FA82F502FA5E
:1002A00005F4C5F120051EBF22FA05FC44EA0C0442
:1002B000203556EA044C4FEA144418BF641C4FF032
:1002C00000084FF00009904271EB030C39D300296C
:1002D00019BFB1FA81F701FA07F6B0FA80F700FA10
:1002E00007F6C7F120071EBF20FA07FC46EA0C06F6
:1002F0002037B6FBF4FCA7EB0507103F07F01F0BF8
:10030000CBF120060CFA0BFB2CFA06F644BFB346E1
:100310000026202FA4BF5E464FF0000B5BEA060CC0
:1003200008BF4FF0010B19EB0B09ABFB027C48EB4C
:100330000608C01B06FB02CC0BFB03CC71EB0C01C7
:10034000C1E70B46024641464846BDE8F08B13B56F
:100350004FF000004FF00001AFF30080BDE81C40FB
:10036000704710B5203AC0F00B80B1E81850203A21
:10037000A0E81850B1E81850A0E81850BFF4F5AF45
:100380005FEA027C24BFB1E81850A0E8185044BFCF
:1003900018C918C0BDE810405FEA827C24BF51F83C
:1003A000043B40F8043B08BF7047D20728BF31F830
:1003B000023B48BF11F8012B28BF20F8023B48BF81
:1003C00000F8012B70474FF0000200B51346944629
:1003D0009646203922BFA0E80C50A0E80C50B1F19D
:1003E0002001BFF4F7AF090728BFA0E80C5048BFB1
:1003F0000CC05DF804EB890028BF40F8042B08BF4F
:10040000704748BF20F8022B11F0804F18BF00F84A
:10041000012B7047704770477047754600F02CF805
:10042000AE4605006946534620F00700854618B0E1
:1004300020B5FFF70DFFBDE820404FF000064FF05C
:1004400000074FF000084FF0000B21F00701AC4609
:10045000ACE8C009ACE8C009ACE8C009ACE8C00928
:100460008D46704710B50446AFF300802046BDE8C6
:100470001040FFF7D8BE000000487047D8070020A2
:1004800001491820ABBEFEE72600020070470000BD
:10049000464910B54A6822F440324A604A684368C7
:1004A0001A434A6001684A6822F480724A6001680F
:1004B0004A68036942EA03224A6001684A6822F0F6
:1004C00040724A6001684A6883681A434A6001685A
:1004D0008A6822F400628A6001688A68C3681A43E5
:1004E0008A60816A6FF07062D14201688A6822F086
:1004F00070628A6001688A680CD0836A1A438A60D5
:1005000001688A6822F040528A6001688A68C36A7A
:100510001A4301E022F040528A6001688A6822F0A2
:1005200002028A6001688A68037E42EA43028A60A6
:1005300090F82010002901684A680FD042F4006248
:100540004A6001684A6822F460424A6001684A6869
:10055000174C436A04EB43331A4301E022F4006270
:100560004A600168CA6A22F47002CA620168CA6AF3
:10057000838B104C04EB03531A43CA6201688A68E8
:1005800022F400728A6001688A6890F8303042EA8A
:1005900043228A6001688A6822F480628A60016866
:1005A0008A68406942EA8020886010BD00230140CB
:1005B00000E0FFFF0000F0FFFEE7704772B6FEE7C5
:1005C00078B50024009490F83C20012A19D001222B
:1005D00080F83C200A6807230568092A13D9EE68C9
:1005E0000A3A02EB420293409E43EE600B788A681F
:1005F0000A3B03EB43039A400368DD682A43DA6051
:1006000010E0022078BD2E6902EB420293409E4327
:100610002E610B788A6803EB43039A4003681D69D7
:100620002A431A614A681F23072A13D205686E6B92
:10063000521E02EB820293409E436E630B790A883E
:100640005B1E92B203EB83039A4003685D6B2A43FF
:100650005A6327E005680D2A12D22E6BD21F02EBD7
:10066000820293409E432E630B790A88DB1F92B26D
:1006700003EB83039A4003681D6B2A431A6311E05E
:10068000EE6A0D3A02EB820293409E43EE620B79D2
:100690000A880D3B92B203EB83039A400368DD6A3C
:1006A0002A43DA62164B0568144A9D4206D10D684A
:1006B000122D03D1556845F48005556005689D42AB
:1006C00018D10B68102B01D0112B13D1536843F4B0
:1006D00000035360096810290CD10A490A4A0968C5
:1006E000B1FBF2F101EB8101490000E0491E0091EC
:1006F0000029FBD180F83C40002078BD0023014058
:10070000002001400C00002040420F0070B50400A2
:100710004FF0000503D0206C002610B107E0012047
:1007200070BD204600F01CF8666484F83C60206CC4
:10073000C00610D4206C20F4885040F002002064E1
:100740002046FFF7A5FE6664206C20F0020040F012
:100750000100206400E0012584F83C60284670BD5B
:1007600030B587B0044614216846FFF72CFE1849BF
:10077000206888422AD117480025016841F4807119
:100780000160006800F48070059012481438016818
:1007900041F001010160016801F00101059101686A
:1007A00041F0020101600068032400F0020005909E
:1007B000C0208DE831006946074800F023F8009416
:1007C00069460648CDE9014500F01CF807B030BD88
:1007D0000020014044380240000002400004024072
:1007E00070B5044600F004F90546601C02D00448C8
:1007F0000078044400F0FCF8401BA042FAD370BD1E
:10080000000000202DE9F84FDFF8B8A100220124F4
:1008100003254FF00F090AF1040BAAF1040E00BFE3
:100820000B6804FA02F63340B34273D10F7907F034
:100830000307012F01D0022F16D187684FEA420823
:1008400005FA08FC27EA0C07D1F80CC00CFA08FCE2
:100850004CEA070CC0F808C04768B7430E79C6F3E6
:10086000001696403E4346600E79F643B6070DD01B
:10087000C768560005FA06FC27EA0C07D1F808C03D
:100880000CFA06FC4CEA070CC0F80CC00E7906F016
:100890000306022E10D1D60800EB8608D8F8206097
:1008A00057074FEAD76C09FA0CF7BE430F6907FAEE
:1008B0000CF73743C8F8207006684FEA420C05FA77
:1008C0000CF7BE430F7907F0030707FA0CF737431D
:1008D00007604E6816F4403F6DD03B4E376847F4D2
:1008E00080473760366822F0030706F4804600969A
:1008F000364E07EB060CDCF8086897073F0F09FA3D
:1009000007F826EA0806DFF8C880404503D14FF013
:1009100000081EE04FE0DFF8BC80404502D14FF0F8
:10092000010816E0DFF8B080404502D14FF0020820
:100930000FE0DFF8A880404502D14FF0030808E03F
:10094000DFF89C80404502D14FF0040801E04FF0F1
:10095000070808FA07F848EA0608CCF80888DAF821
:1009600000605746D1F804C09E435FEACC2C00D506
:100970001E433E60DBF800605F46D1F804C09E4332
:100980005FEA8C2C00D51E433E60DEF8006077469F
:10099000D1F804C09E435FEA8C3C00D51E433E6004
:1009A000084F083F3E68D1F804C09E435FEACC3C44
:1009B00000D51E433E60521C102AFFF431AFBDE843
:1009C000F88F0000083C01404438024000300140EC
:1009D000000002400004024000080240000C0240F7
:1009E000001002400AB1816170470904FBE7000072
:1009F00001488068704700000000002070B50400C6
:100A000025D094F83D00002520B984F83C502046BC
:100A100000F0B8F8242084F83D002068016821F037
:100A2000010101602068016841F400410160206813
:100A3000016821F40041016000F0DAFA4D4A616872
:100A4000914201D84C4900E04C49884201D2012032
:100A500070BD4B492368B0FBF1F15E6826F03F069C
:100A60000E435E606368934206D94FF49673594310
:100A70004FF47A73B1FBF3F12368491C1E6A26F028
:100A80003F06314319626168914210D84900401E07
:100A9000B0FBF1F2521CC2F30B02042A01D2042073
:100AA00022E0B0FBF1F0401CC0F30B001CE0A26898
:100AB000F2B301EBC10303EB0116431EB3FBF6F3E4
:100AC0005B1C43F480431B0549D092B301EBC10288
:100AD00002EB0111401EB0FBF1F0401CC0F30B0013
:100AE00040F4804040F400402168CA694CF6FF732E
:100AF0009A431043C861D4E9071001432068026893
:100B000022F0C00211430160D4E9030101432068CF
:100B1000826848F2FF339A4311438160D4E90501AA
:100B200008432168CA6822F0FF021043C86001E050
:100B30000EE016E02068016841F0010101602564C3
:100B4000202084F83D00256384F83E50002070BDCD
:100B500001EB4106431EB3FBF6F35B1CB3E7012038
:100B6000C2E701EB4101401EB0FBF1F0401CC0F3B5
:100B70000B00B7E7A086010080841E0000093D003D
:100B800040420F002DE9F04186B00446142168462A
:100B9000FFF719FC23682A4CDFF8A0C0002528497C
:100BA00012260327042227481034634518D10B6806
:100BB00043F002030B600968029501F00201059100
:100BC0003902CDE90016CDE903726946FFF71AFE36
:100BD000206840F400102060206800F4001028E035
:100BE000DFF864C0634525D10B6843F002030B6056
:100BF0000968029501F0020105914FF48061CDE989
:100C00000016CDE9037269468046FFF7FBFD082018
:100C1000CDE9000602950920CDE9037069464046FA
:100C2000FFF7F0FD206840F480002060206800F4A9
:100C30008000059006B0BDE8F0810000005400403F
:100C400030380240000402400058004002488168E9
:100C50000278114481607047000000200B4810B5F5
:100C6000016841F400710160016841F48061016034
:100C7000016841F480710160032000F061F80F20E9
:100C800000F006F800F024F8002010BD003C0240FF
:100C900070B50D4D04464FF47A712878B1FBF0F031
:100CA0000A490968B1FBF0F000F076FC48B9102C55
:100CB00007D200222146501E00F022F800206C606E
:100CC00070BD012070BD0000000000200C0000205D
:100CD0000A4808B5016841F480410160006800F4E9
:100CE000804000900548001F016841F0805101607C
:100CF000006800F08050009008BD000044380240B9
:100D0000F0B40E4B1B680C46C3F30223C3F1070576
:100D1000042D00D90425191D072901D2002300E064
:100D2000DB1E012606FA05F1491E214099409E402E
:100D3000761E16403143F0BC01F033BC0CED00E0F0
:100D4000064900F0070208684FF6FF03184040EA22
:100D50000220034A10430860704700000CED00E0D9
:100D60000000FA052DE9F0418AB0040005D094F89E
:100D7000BD042668002520B108E001200AB0BDE8C6
:100D8000F08184F8BC54204600F05EF8032084F81B
:100D9000BD04F06BC00500D42561206801F08EFB16
:100DA00004F11001282288466846FFF7DAFA94E831
:100DB0000F0001F061FA0226C8BB0021206801F093
:100DC000C1FB002001270EE000EBC00104EB810114
:100DD00081F83D7001F83C0F08810D71CD600D6107
:100DE000401CC0B28D6161688142EDD8002011E0E5
:100DF00000EBC00104EB810181F87D5281F87C0297
:100E000081F88052C1F88852C1F88C52401CC0B29F
:100E1000C1F8945261688142EAD828224146684666
:100E2000FFF79FFA94E80F0001F08EFA10B184F8F2
:100E3000BD64A2E784F8385084F8BD74206801F0DE
:100E400075FA00209AE7000010B586B00446142118
:100E50006846FFF7B8FA2068B0F1A04F27D11548CF
:100E60000021026842F001020260006800F0010007
:100E700005904FF4C05000900220CDE901010320FD
:100E800003900A20049069460B48FFF7BBFC094811
:100E9000001D016841F080010160064814300168BE
:100EA00041F480410160006800F48040059006B084
:100EB00010BD000030380240000002402DE9F0472C
:100EC0000E46050065D0DFF81481D8F80000F7B2AF
:100ED00000F00700B04207D288F80070D8F8000090
:100EE00000F00700B04254D128683D4C810712D56C
:100EF000400703D5206840F4E050206028780007C0
:100F000003D5206840F4604020602068A96820F084
:100F1000F000084320602878C0072DD03049686869
:100F20000839012812D0022813D0032811D00968EB
:100F3000890700292DDA216821F00301014321608E
:100F4000FFF756FD814641F2883A0EE009688903B1
:100F5000EFE709688901ECE7FFF74AFDA0EB09011B
:100F6000514502D90320BDE8F0872068696800F088
:100F70000C00B0EB810FEFD1D8F80010404601F023
:100F80000701B14207D90770006800F00700B042BE
:100F900001D00120E7E72878400705D52068E968F7
:100FA00020F4E050084320602878000706D5206828
:100FB000296920F4604040EAC100206000F038F860
:100FC0002168084AC1F30311515CC8400649086012
:100FD00006480068FFF75CFE0020C4E7003C0240C2
:100FE00008380240022600080C00002004000020FF
:100FF0000448054900680968044AC1F38221515C2C
:10100000C84070470C000020083802401226000833
:101010000448054900680968044AC1F34231515C3B
:10102000C84070470C000020083802401226000813
:10103000154810B5006810F00C02144813D014497C
:10104000042A0FD0082A0ED10F4C241F22682368CF
:1010500002F03F025B0207D52068C0F38810A0FBB6
:10106000010106E0084610BD2168C1F38811A1FB0B
:1010700000010023FFF7FEF82168C1F30141491C7C
:101080004900B0FBF1F010BD083802400024F40024
:1010900040787D012DE9F84F04006ED02078DFF80C
:1010A0004C93C007A9F104054AD009F10400016876
:1010B000C1F38101012908D00068C0F38100022832
:1010C0000AD1D9F80000400206D52868800337D538
:1010D00060680028E1D033E06068B0F5803F10D050
:1010E000B0F5A02F286810D020F480302860286840
:1010F00020F4802028606068A8B1FFF779FC0646DC
:101100000DE0286840F48030F4E740F48020286047
:10111000F7E700BFFFF76CFC801B642873D82868D2
:101120008003F7D50CE0FFF763FC064605E000BF3F
:10113000FFF75EFC801B6428F0D828688003F7D492
:101140002078DFF8AC8280074FF0000A3ED5A74830
:10115000001D016811F00C0F08D00068C0F3810079
:1011600002280BD1D9F80000400207D42868800774
:1011700016D5E068012800D112E033E1E068B8B18B
:101180000120C8F80000FFF733FC064605E000BF69
:10119000FFF72EFC801B0228C0D828688007F7D5EF
:1011A0002868216920F0F80040EAC10028600DE0BD
:1011B000C8F800A0FFF71CFC064604E0FFF718FC87
:1011C000801B02281FD828688007F7D420780007E2
:1011D00022D5864F87486169703771B1012101605E
:1011E000FFF706FC064604E0FFF702FC801B02281E
:1011F00009D838688007F7D50EE0C0F800A0FFF7DF
:10120000F7FB064605E082E0FFF7F2FB801B0228B1
:101210007DD838688007F7D42078400768D5DFF894
:10122000CCB100270BF13C0BDBF80000C0000BD465
:10123000DBF8001041F08051CBF80010DBF8000023
:10124000012700F0805000906B4E3068C00510D42C
:10125000306840F480703060FFF7CAFB009005E012
:10126000FFF7C6FB0099401A022850D83068C00525
:10127000F6D55E4EA0686C3601280FD00528306880
:1012800010D020F001003060306820F004003060A1
:10129000A068B8B1FFF7ACFB00900FE0306840F0F9
:1012A0000100F4E740F004003060F7E7FFF7A0FB2F
:1012B0000099411A41F28830814266D8306880072F
:1012C000F4D50EE0FFF794FB009007E0FFF790FBEA
:1012D0000099411A41F28830814256D8306880071F
:1012E000F4D42FB1DBF8001021F08051CBF80010BE
:1012F000A069C8B33D49091D0968C1F381010229EC
:101300004AD00228504607D0C8F8600000E03CE010
:10131000FFF76EFB04463BE04746C8F86000FFF766
:1013200067FB064605E000BFFFF762FB801B022853
:101330002BD828688001F7D4D4E907010843A16AB3
:101340002E4A490802EB0141626A41EA82110843D0
:1013500094F82C1040EA0161C9F8001001203866A9
:10136000FFF746FB044606E03EE000BFFFF740FB08
:10137000001B022809D828688001F7D534E000BF97
:10138000FFF736FB001B022802D90320BDE8F88FC7
:1013900028688001F4D427E00128F7D0D9F80000AC
:1013A000E26900F4800191421CD1226A00F03F0101
:1013B000914217D147F6C071626A0140B1EB821FBA
:1013C00010D1A26A4FF0FF3300F4403103EB520218
:1013D000B1EB024F06D194F82C1000F07060B0EB26
:1013E000016F01D00120D1E70020CFE7043802408F
:1013F00000004742800E4742007000400000FFFF9F
:1014000070B5040009D0606A002540B125616561AE
:10141000A56294F8510040B10CE0012070BD6068F5
:10142000B0F5827FF4D0E561F2E784F850502046B1
:1014300000F044F8022084F851002068016821F08F
:1014400040010160A088218900F4827001F4044108
:101450000843A18901F400610843217C01F00201E5
:101460000843217D01F001010843218B01F4007143
:101470000843217F01F03801084394F8201001F05F
:1014800080010843218D01F4005108432168086060
:10149000A069042101EA104094F8241001F0100121
:1014A0000843216848602068C16921F40061C16176
:1014B0006565012084F85100002070BD2DE9F043DE
:1014C00087B0044614216846FEF77DFF2D4A216847
:1014D00000242D48022503260527DFF8B09091420D
:1014E0002DD1294914310A6842F480520A600968F2
:1014F00001F480510591016841F00101016001682A
:1015000001F001010591016841F0020101600068EC
:101510004FF0200800F00200CDF80080CDE9047003
:101520000396CDE9015469461948FFF76BF902AA01
:10153000694682E8D000CDE9008548461DE0154A9D
:1015400091421CD1104910310A6842F480420A606D
:10155000096801F480410591016841F002010160D0
:10156000006802AA00F0020005904FF46040CDE947
:10157000000582E8D00069464846FFF743F907B006
:10158000BDE8F083003001403038024000040240E2
:10159000000002400038004010B5401EB0F1807FCE
:1015A00001D3012010BD4FF0E02460610F216017CE
:1015B00000F0F7FF0020A06107202061002010BD8F
:1015C00070B590F83C20012A2CD0012480F83C40D2
:1015D000022280F83D2003685A689D6822F0700658
:1015E0000A6832435A60104B02689A420ED0B2F138
:1015F000804F0BD00D4B9A4208D00D4B9A4205D02C
:101600000C4B9A4202D00C4B9A4204D1496825F007
:1016100080031943916080F83D40002180F83C1020
:10162000084670BD022070BD00000140000400406B
:1016300000080040000C0040004001402DE9F0414E
:101640000D46040003D094F83D0018B108E00120D5
:10165000BDE8F081002084F83C00204600F040F80E
:10166000022084F83D002068816844F2070291431B
:101670008160211D206800F08BFC226890689169D0
:10168000166A2B68AF69034340F20330814341EA95
:101690000721A868EF6908434FF6FC418843E968D1
:1016A00040EA0720014328692F6A000140EA073019
:1016B000084369686D6926F0AA0646EA05152943BC
:1016C00093602268906154F8460B0162012004F88F
:1016D0001F09E0752076E0762077A0750020B7E737
:1016E00030B587B0044614216846FEF76CFE2048EA
:1016F00024681E4D00221E4910380223AC4216D128
:101700000C6844F004040C60096801F004010591C0
:10171000016841F0020101600068694600F00200C2
:101720000590C0200090CDE90132124818E0124D1A
:10173000AC4219D10C6844F008040C60096801F04F
:1017400008010591016841F00101016000686946E6
:1017500000F00100059003200090CDE90132074818
:10176000CDE90323FFF74EF807B030BD0008004075
:101770004038024000040240000C004000000240DB
:1017800010B586B0044614216846FEF71CFE0E49CB
:101790002068884215D10D480021026842F00102FC
:1017A0000260006800F0010005900C20009002200B
:1017B000CDE901010320CDE9031069460448FFF794
:1017C00021F806B010BD0000004001403038024052
:1017D0000000024070B5044690F83C000025012846
:1017E0000FD0012084F83C006AB1042A0FD0082AE7
:1017F00011D00C2A13D00125002084F83C00284683
:1018000070BD022070BD206800F00EFCF4E7206877
:1018100000F032FCF0E7206800F05AFCECE72068AA
:1018200000F082FCE8E710B5040003D094F83D0016
:1018300010B107E0012010BD002084F83C002046D4
:1018400000F01EF8022084F83D00211D206800F001
:101850009FFB012084F8460084F83E0084F83F0096
:1018600084F8400084F8410084F8420084F8430082
:1018700084F8440084F8450084F83D00002010BD41
:10188000704770B5044690F83C0000260D460128CC
:101890000FD0012084F83C006AB1042A1DD0082A28
:1018A0002FD00C2A3FD00126002084F83C0030467F
:1018B00070BD022070BD206800F0B6FB2068816911
:1018C00041F0080181612068816921F00401816192
:1018D000206881692A69114311E0206800F0CCFB7F
:1018E0002068816941F4006181612068816921F487
:1018F00080618161206881692A6941EA02218161F0
:10190000D2E7206800F0E4FB2068C16941F00801DB
:10191000C1612068C16921F00401C1612068C16909
:101920002A69114311E0206800F0FEFB2068C169BC
:1019300041F40061C1612068C16921F48061C16125
:101940002068C1692A6941EA0221C161ACE710B58A
:10195000040003D094F83D0010B107E0012010BD51
:10196000002084F83C00204600F01EF8022084F895
:101970003D00211D206800F00BFB012084F846008B
:1019800084F83E0084F83F0084F8400084F8410069
:1019900084F8420084F8430084F8440084F8450049
:1019A00084F83D00002010BD08B500680649884253
:1019B00008D10648016841F480310160006800F4F4
:1019C0008030009008BD00000040014044380240D3
:1019D00070B5040004D094F83D00002510B106E075
:1019E000012070BD84F83C50204600F023F82420EC
:1019F00084F83D002068C16821F40051C160204690
:101A000000F0B4FB2068016921F490410161206875
:101A1000416921F02A0141612068C16841F4005107
:101A2000C1602564202084F83D0084F83E00002039
:101A300070BD000010B586B0044614216846FEF75C
:101A4000C2FC14492068884221D113480021026851
:101A500042F010020260006800F0100005900E488D
:101A60001438026842F001020260006800F00100D0
:101A700005904FF4C06000900220CDE901010320E1
:101A800003900720049069460448FEF7BBFE06B0A9
:101A900010BD000000100140443802400000024028
:101AA000FEE700007FB500241448009401940294DE
:101AB00011490394C0E9001401250561846004768E
:101AC00080F820400E49C0E90A14C561C46080F85E
:101AD00030404561FEF71AFE08B1FEF76FFD0920A0
:101AE000CDE90005694602940448FEF769FD002827
:101AF00001D0FEF763FD7FBD0020014010000020F3
:101B00000100000F2DE9F04F87B014216846FEF761
:101B10005AFC3D480024016841F00401016001685D
:101B200001F004010591016841F080010160016844
:101B300001F080010591016841F001010160016837
:101B400001F001010591016841F0020101600068A6
:101B50002E4E00F002004FF4604505900022294609
:101B60003046FEF73FFFDFF8A890002203214846E9
:101B7000FEF738FFDFF89CA0B71400223946504624
:101B8000FEF730FFDFF890B04FF480780022414636
:101B90005846FEF727FF00950125CDE90154694617
:101BA00030460394FEF72EFE03200090CDE9015449
:101BB000694648460394FEF725FE10204FF4881628
:101BC000CDE90006694602945846FEF71BFE042044
:101BD000CDE90006694602945046FEF713FE0097D1
:101BE000CDE90154694650460394FEF70BFECDF84B
:101BF0000080CDE90154694658460394FEF702FE81
:101C000007B0BDE8F08F0000303802400008024005
:101C1000001C024000040240000002400D4810B5C4
:101C20000B4901600C49416000214FF48042816002
:101C3000C0E9031241618161C1610162FEF7DEFE0C
:101C4000002803D0BDE81040FEF7B8BC10BD00006E
:101C50000054004058000020A08601000D4810B537
:101C60000B4901600C49416000214FF480428160C2
:101C7000C0E9031241618161C1610162FEF7BEFEEC
:101C8000002803D0BDE81040FEF798BC10BD00004E
:101C900000580040AC000020A08601000F4810B59D
:101CA0000D4901604FF48271416000218160C16083
:101CB0004FF400720161C0E90512C1610162416225
:101CC00081620A21C162FFF79BFB002803D0BDE8B7
:101CD0001040FEF773BC10BD003001400001002031
:101CE0000F4810B50D4901604FF482714160002129
:101CF0008160C1604FF400720161C0E90512C161E9
:101D00000162416281620A21C162FFF779FB00280A
:101D100003D0BDE81040FEF751BC10BD00380040B4
:101D20005801002010B58CB024216846FEF74BFB0B
:101D300000241548099413490A94C0E900144FF689
:101D4000FF71C0E90241046184610120CDE9000412
:101D5000CDE902040494CDE90540079469460A4898
:101D60000894FFF76BFC08B1FEF728FC099409A959
:101D700005480A94FFF724FC002801D0FEF71EFC5A
:101D80000CB010BD00080040B001002010B58CB0B0
:101D900024216846FEF717FB0024154809941349CF
:101DA0000A94C0E90014611EC0E902410461846123
:101DB0000120CDE90004CDE902040494CDE90540F9
:101DC000079469460A480894FFF738FC08B1FEF703
:101DD000F5FB099409A906480A94FFF7F1FB0028CE
:101DE00001D0FEF7EBFB0CB010BD0000000C004072
:101DF000F801002010B588B01C216846FEF7E3FA10
:101E0000194818490024C0E900144FF6FF71C0E9D1
:101E1000024104618461FFF79AFD08B1FEF7CEFB31
:101E20001148FFF700FD08B1FEF7C8FB6020CDE9BF
:101E300000040294002269460B480494FFF721FD38
:101E400008B1FEF7BBFB0422694607480094FFF780
:101E5000C1FC08B1FEF7B2FB0348FFF791FC08B0E4
:101E600010BD000000400140400200200C4810B5A9
:101E70000A4901604FF4E1314160002181600C2288
:101E8000C160C0E904128161C161FFF7A1FD0028B2
:101E900003D0BDE81040FEF791BB10BD001001401B
:101EA000880200200C4810B54FF0A04101600421C9
:101EB000416002220021C0E90321C0E9062101623C
:101EC0004162C1620163FEF74DFF002803D0BDE807
:101ED0001040FEF773BB10BDCC020020FEE7FEE70A
:101EE00070477047FEF7B2BE30B593B030216846F8
:101EF000FEF769FA14210CA8FEF765FA1E480025C2
:101F0000016841F080510160006800F0805011903C
:101F10001A48016821F4404141F400410160006821
:101F2000022400F4404011900120039010200490FE
:101F3000009406940820CDE907506020CDE90904FB
:101F400004200B906846FFF7A5F808B172B6FEE7CB
:101F50000CA90F2081E831004FF4A0500F904FF4EE
:101F60008050109002210CA8FEF7A8FF002801D095
:101F700072B6FEE713B030BD40380240007000403A
:101F80000248016841F470010160704788ED00E08B
:101F9000F0B502681D4B1E4C9F031E4D1E4E98420D
:101FA00007D0B84205D0A04203D0A84201D0B04229
:101FB00004D122F0700C4A6842EA0C02984210D018
:101FC000B8420ED0A0420CD0A8420AD0B04208D0ED
:101FD000124CA04205D0124CA04202D0114CA0429B
:101FE00003D122F44074CA6822434C6922F0800273
:101FF000224302608A68C2620A688262984201D102
:102000000969016301214161F0BD00000000014048
:102010000004004000080040000C00400040014067
:10202000004401400048014030B5026A22F001023C
:102030000262026A4368846924F073050C682C43C9
:1020400022F002058A682A430A4DA8420BD122F0E9
:102050000805CA6823F440732A434D6922F004023C
:102060001D438B692B43436084614968416302626D
:1020700030BD00000000014030B5026A22F01002BD
:102080000262026A436884690D6824F4E64444EA03
:1020900005248D6822F0200242EA05120B4DA84269
:1020A0000ED1CD6822F0800242EA05124D6923F478
:1020B000406343EA85038D6922F0400243EA8503C9
:1020C0004360846149688163026230BD0000014061
:1020D00030B5026A22F480720262036A4268C469FF
:1020E00023F4007324F073050C682C438D6843EAD5
:1020F00005230C4DA8420ED1CD6823F4006343EABA
:1021000005234D6922F4405242EA05128D6923F4F9
:10211000806342EA05124260C4614968C163036298
:1021200030BD00000000014030B5026A22F4805248
:102130000262046A4268C3690D6823F4E64343EA15
:1021400005238D6824F4005444EA0534064DA84262
:1021500004D14D6922F4804242EA85124260C36193
:1021600049680164046230BD0000014070B5044656
:1021700000680169E26821F440511143016121695D
:10218000A068E26908436169114308432168CA688D
:1021900049F20C639A430243CA6020684169A2690C
:1021A00021F440711143416131492068884202D0D5
:1021B0003049884202D1FEF72BFF01E0FEF718FFFD
:1021C000E2690023192164253226B2F5004F6268C6
:1021D00028D0A0FB0101930F9200FEF74BF80146B7
:1021E000B0FBF5F06FF01802504301EB800006EBF6
:1021F0000010B0FBF5F000F0F002B1FBF5F002EBDF
:102200000012B1FBF5F06FF01803584301EB8000AA
:1022100006EB0010B0FBF5F000F00F002168104451
:10222000886070BDA0FB010192185B41FEF722F8A7
:102230000146B0FBF5F00201B1FBF5F06FF01803B9
:10224000584301EB800006EBC000B0FBF5F000F056
:10225000F80002EB4002B1FBF5F0584301EB8000BF
:1022600006EBC000B0FBF5F000F00700D6E7000079
:10227000001001400014014070B5044606990A9E02
:10228000049D0D98012916D0E06840F04000E06000
:10229000204600F02BF8A16B1EB321F48031A1631E
:1022A000012D07D1A16841F00601A160A16841F0AC
:1022B0002001A16070BDA16B21F48031A163E168B0
:1022C000094A1140E160E16821F44011E160012810
:1022D00003D1E06840F48010E060204600F006F88A
:1022E000DEE741F48031DAE7BFFFBDFF08B5002229
:1022F0000D490092009B5B1C00938B420CD8036934
:10230000002BF7DA0092026942F001020261009AA2
:10231000521C00928A4201D9032008BD0269D207EB
:10232000F5D1002008BD0000400D0300D0F8001ECC
:1023300021F00301C0F8001ED0F8041841F002019A
:10234000C0F80418002070472DE9F04F00250E4614
:102350000446DDF82CC0DDF824B0109F284629463D
:1023600004EB8002C2F80411401C0F28F8D3204669
:10237000C7B1806B20F40012A263A06B40F400226E
:10238000A26308468846C4F8000ED4F80018204618
:10239000C4F80018BCF1010F16D0D0F8001841F0B5
:1023A000030116E0D0F8040840F00202C4F8042843
:1023B000A06B40F40012A263A06B20F40022A26381
:1023C000A06B20F48022DBE7D0F800180BB141F0BD
:1023D0000101C0F80018102100F094F800B10125A7
:1023E000204600F071F800B101254046C4F810887D
:1023F000C4F81488C4F81C8800214FF000694FF01D
:10240000904A4FF67F3314E004EB4112D2F800C932
:10241000BCF1000F06DA11B1C2F800A904E0C4F85B
:10242000009901E0C2F80009C2F81009C2F80839A1
:10243000491C8E42E8D8002115E000BF04EB411290
:10244000D2F800CBBCF1000F06DA11B1C2F800AB34
:1024500004E0C4F8009B01E0C2F8000BC2F8100BC6
:10246000C2F8083B491C8E42E8D8D4F8101821F471
:102470008072C4F81028A0616FF080406061BBF1E9
:10248000000F03D1A06940F01000A061A0690949C4
:102490000843A0610C9818B1A06940F00800A06141
:1024A000012F03D1A06904490843A0612846BDE873
:1024B000F08F000000383C8004000040816821F06B
:1024C000010181600020704708B500220C4900928C
:1024D000009B5B1C00938B420AD80369002BF7DA40
:1024E000009210220261009A521C00928A4201D985
:1024F000032008BD0269D206F5D4002008BD000003
:10250000400D030018B500230D4A0093009C641C85
:10251000009494420CD80469002CF7DA009320232D
:1025200043EA811101610099491C0091914201D94E
:10253000032018BD01698906F5D4002018BD0000EC
:10254000400D030070B50446C068002520F0C0406F
:10255000E060012901D079B120E0E06840F000504E
:10256000E0600120FEF73CF960696D1C10F0010F7E
:1025700010D1322DF5D30DE0E06840F08040E060EE
:102580000120FEF72DF960696D1C10F0010F01D0DC
:10259000322DF5D3322D01D0002070BD012070BD49
:1025A000FEE70907090E002804DB00F1E02080F8AF
:1025B0000014704700F00F0000F1E02080F8141DB7
:1025C0007047FEF74BFBFFF78FFCFFF79BFAFFF717
:1025D00069FAFFF723FBFFF741FBFFF75FFBFFF70C
:1025E0007FFBFFF79FFBFFF7D1FBFFF703FCFFF734
:1025F0003DFCFFF757FCFEE74FF04070E1EE100A9C
:1026000070470000000000000000010203040607FC
:102610000809000000000102030400003C26000835
:102620000000002010000000D00100084C26000827
:1026300010000020280E0000EC010008010000003E
:0C26400010000000000000000024F40066
:040000050800019559
:00000001FF
