:020000040800F2
:1000000098130020450100080D400008B534000891
:10001000C13F0008F10B000831500008000000004B
:1000200000000000000000000000000095480008EB
:100030000D0C000800000000CD4700081949000819
:100040005F0100085F0100085F0100085F01000810
:100050005F0100085F0100085F0100085F01000800
:10006000AB0C00085F010008B10C0008F50B00089C
:100070005F0100085F0100085F010008010C000833
:100080005F0100085F0100085F0100085F010008D0
:100090005F0100085F0100085F010008B70C00085D
:1000A0005F0100085F0100085F0100085F010008B0
:1000B0005F0100085F0100088D4900085F0100082A
:1000C0005F0100085F0100085F0100085F01000890
:1000D0005F010008255000085F0100085F0100086B
:1000E000950C00085F0100085F0100085F0100082F
:1000F0005F0100085F0100085F0100085F01000860
:100100005F0100085F0100085F0100085F0100084F
:10011000454E00085F0100085F0100085F0100080C
:100120005F0100085F0100085F0100085F0100082F
:10013000DFF80CD000F0A8FC004800474579000823
:10014000981300200648804706480047FEE7FEE770
:10015000FEE7FEE7FEE7FEE7FEE7FEE7FEE7FEE777
:1001600089490008310100082DE9F0410024061BEF
:10017000254671F1000605DA01240027D0EB0700BF
:1001800067EB0101161E73F1000605DA0027D2EBBA
:100190000702012567EB030300F0DAFA86460E46F4
:1001A00017469C46AC4204D00025D0EB050E65EB0B
:1001B000010624B10020D2EB000760EB030C70466F
:1001C00031463A466346BDE8F081202A04DB203AF6
:1001D00021FA02F00021704721FA02F3D040C2F167
:1001E0002002914008431946704700000649074A1B
:1001F0000868504343F239021044086040087047D1
:100200000149086070470000940100206D4EC6410E
:10021000D2B201E000F8012B491EFBD27047002248
:10022000F6E710B513460A4604461946FFF7F0FFF5
:10023000204610BD30B504460020034600E05B1C9C
:10024000934203D2E05CCD5C401BF8D030BDF0B4EB
:1002500080EA0102D40F4200B2EB410F02D2024603
:10026000084611464A0042D0C30DDDB2C1F3C75261
:10027000AD1A202D35DAC1F3160141F4000204B1A4
:100280005242C5F1200602FA06F12A411044B3EBAE
:10029000D05F23D0C4B1012DA0EBC35009DCF0BC6A
:1002A0004FF0004202EAC352DBB200F5000000F05A
:1002B000AABA400000F1807000EBC350A0F180703A
:1002C00040EAD170490009E0490841EAC071A0EB59
:1002D000C35000F50000400800EBC350F0BC00F034
:1002E00089BA6142012202EB4101001BF6E7F0BC32
:1002F000704781F00041AAE780F00040A7E780EA5C
:10030000010210B502F00043400022D04A001FD085
:10031000010E01EB1261C0F35600C2F3560240F425
:10032000000042F40002A0FB022000047F39140404
:1003300000D0401C50EA124001D44000491EC2B215
:100340000C0604EBD010401C4008802A02D003E0C9
:10035000002010BD20F00100002900DA0020184321
:1003600010BD30B480EA010202F0004530F00042D6
:1003700021F0004013D090B1C30DD40DC2F316018B
:10038000C0F31600E41A41F4000140F400027D3489
:10039000914201D3641C00E04900002C02DA30BC19
:1003A000002070474FF400000023914201D3891AC6
:1003B000034340084FEA4101F7D151B1914202D1C4
:1003C0004FF0004105E002D24FF0010101E06FF073
:1003D000010103EBC450284430BC00F00BBA4200CA
:1003E00005D0C0F3C7525242914201DC0020704751
:1003F00000EBC15070472DE9FE4F804681EA0300B3
:10040000C00F0C46009021F0004123F00045B8EBEE
:100410000200A94105D24046214690461C460B46A3
:10042000024623F00040104347D0270DC7F30A00CF
:10043000C3F30A510290401A019040286BDAC3F3CB
:10044000130040F4801B0098924620B10023D2EBA9
:10045000030A63EB0B0B01985946C0F1400250466A
:1004600000F0A7F906460D4650465946019A00F09D
:10047000AFF910EB08006141002487EA115284EAC9
:10048000E7731A4340D0009A62B3019A012A4FEAF7
:10049000075215DC001B61EB02014FF0004202EA3B
:1004A0000752CDE90042001C41F5801132462B462F
:1004B00000F0E6F903B0BDE8F08F40462146F9E7C9
:1004C000001B61EB0201001C41F5801300185B4129
:1004D0002018A2F5001747EB030140EAD570B619C2
:1004E0006D4111E06D084FEA360645EAC0754FEAE6
:1004F0000752001B61EB0201001C41F58011490805
:100500004FEA30000019514132462B4603B0BDE896
:10051000F04F00F0A6B90098012240000023D0EB74
:10052000020263EBE073009821464FEAE074B8EBF7
:10053000000061EB0401E9E783F000435BE781F031
:10054000004158E72DE9FE4F81EA030404F000441E
:1005500021F0004100944FF0000B23F0004350EADB
:1005600001045ED052EA03045BD0C3F30A54C1F322
:100570000A552C44A4F2F3340194A0FB0254C1F3B5
:10058000130141F48011C3F3130343F4801301FBFF
:10059000024400FB034E840A970A44EA815447EA66
:1005A0008357A4FB076802958D0A05FB07854FEA70
:1005B000932C04FB0C542705029D4FEA065847EA8A
:1005C0001637B5EB08056EEB070C870E920E47EA5F
:1005D000811742EA8312A7FB0201B6EB0B0164EB21
:1005E00000042B0D43EA0C335E1844EB1C50DA4632
:1005F0005146E7FB0201C5F313044FEA0B3343EA0C
:1006000014534FEA0432019C43EA0603A4F10C049C
:100610000294009CCDE900B400F032F903B0BDE8CB
:10062000F08F00200146F9E7C10F80EAE07008442E
:10063000CA079623002100F0E6B89623002211464F
:1006400000F0E1B800F0004220F00040C10DC0F31E
:10065000160040F400007F2901DA00207047962937
:1006600003DCC1F19601C84001E096398840002AB8
:10067000F4D04042704720F00040C10DC0F3160096
:1006800040F400007F2901DA00207047962903DC3E
:10069000C1F19601C840704796398840704700F014
:1006A000004230F000400AD0C10D01F56071C0F386
:1006B000160042EA0151C20840071143704700206A
:1006C0000146704701F0004330B421F0004150EA88
:1006D000010206D00A0DA2F56072C1F31301002ACF
:1006E00002DC30BC00207047440F44EAC104C10062
:1006F000E01830BC00EBC25000F07CB8002801DBF1
:10070000C0F10040002901DBC1F100418142704786
:10071000002801DBC0F10040002901DBC1F10041EC
:100720008842704730B50B46014600202022012444
:1007300009E021FA02F59D4205D303FA02F5491BAF
:1007400004FA02F52844151EA2F10102F1DC30BDC5
:100750002DE9F05F0546002092469B4688460646F6
:10076000814640241BE02846414647462246FFF783
:100770002CFD53465A46C01A914110D311461846D3
:10078000224600F016F82D1A67EB01084F46224664
:100790000120002100F00DF817EB00094E41201E4A
:1007A000A4F10104DFDC484631462A464346BDE851
:1007B000F09F202A04DB203A00FA02F10020704763
:1007C0009140C2F1200320FA03F31943904070478F
:1007D000202A06DBCB17203A41FA02F043EAE07305
:1007E00006E041FA02F3D040C2F1200291400843F2
:1007F000194670470029A8BF7047401C490008BF30
:1008000020F00100704710B4B0FA80FC00FA0CF040
:1008100050EA010404BF10BC704749B1CCF1200478
:1008200021FA04F411FA0CF118BF01212143084305
:10083000A3EB0C01CB1D4FEA00614FEA102042BF31
:10084000002010BC704700EBC35010440029A4BF27
:1008500010BC7047401C490008BF20F0010010BCCC
:10086000704710B5141E73F1000408DA401C41F102
:10087000000192185B411A4301D120F0010010BD24
:100880002DE9F04D92469B4611B1B1FA81F202E09A
:10089000B0FA80F220329046FFF78BFF04460F46F5
:1008A00040EA0A0041EA0B0153465A46084313D076
:1008B000114653EA010019D0C8F140025046FFF733
:1008C00084FC05460E46504659464246FFF771FFE6
:1008D000084305D0012004E020463946BDE8F08DEC
:1008E0000020054346EAE0762C4337430A98630527
:1008F000E40AA0EB08000022FD0A44EA47540A304B
:1009000002D500200146E9E7010510196941DDE93A
:10091000084500196941BDE8F04DA2E72DE9F04D09
:1009200081EA030404F0004B21F0004514464FF027
:10093000000A23F0004150EA050220D054EA0102E7
:100940001DD0C5F30A570246C5F31303C1F31300C4
:10095000C1F30A5640F4801543F48013A7EB060850
:10096000101BD64608F2FD3873EB050002D308F1E0
:10097000010801E092185B41B8F1000F03DA002092
:100980000146BDE8F08D00204FF4801106468446F4
:100990000EE0171B73EB050705D3121B63EB050372
:1009A00006434CEA010C49084FEA300092185B41BB
:1009B00050EA0107EDD152EA030012D082EA0400A6
:1009C00083EA0501084305D0101BAB4106D2012282
:1009D000002306E000224FF0004302E06FF0010226
:1009E00053101AEB06004CEB085110EB0A0041EBD8
:1009F0000B01BDE8F04DFFF734BF70B521F00043A7
:100A000003430CD0C1F30A550024D5EB040564EB75
:100A10000403D617AD1AB34102DB0020014670BDB6
:100A2000201841EB025170BDC1F30A52C1F313010A
:100A300040F2FF3341F480119A4202DA002001466D
:100A4000704740F233439A42A2F2334202DC5242F0
:100A5000FFF7BBBBFFF7ADBE30B5041E71F100045C
:100A600004DB4FF00044404264EB0101141E73F1BB
:100A7000000405DB1C464FF00043524263EB0403C5
:100A8000994208BF904230BD064C074D06E0E06831
:100A900040F0010394E8070098471034AC42F6D3C5
:100AA000FFF74AFB68AF000888AF00082DE9F04D5A
:100AB00000231A461B1A8A4103DB00200146BDE8C9
:100AC000F08DC1F30A52C1F3130141F480154FF0C8
:100AD000000BD10702D100186D41521E00270446B9
:100AE00040F2FF11384601EB620A3E46804602465C
:100AF00000204FF48011FFF768FBC2197141BB1849
:100B000046EB0100B4EB030C75EB000C04D3E41AC4
:100B100065EB000517460E46241908F101006D41EA
:100B200080463428E3DDF91946EB0600091BA8418D
:100B300003D24FF0FF32134601E0002213461BEBB5
:100B4000070046EB0A51BDE8F04DFFF78ABE70B5CD
:100B50008C1810F8015B15F0070301D110F8013B68
:100B60002A1106D110F8012B03E010F8016B01F8EF
:100B7000016B5B1EF9D12B0705D40023521E0DD447
:100B800001F8013BFAE710F8013BCB1A921C03E095
:100B900013F8015B01F8015B521EF9D5A142D8D3CD
:100BA000002070BD70B5044600688168C943C9075C
:100BB0001CD1816821F00101816000F045FF0546EC
:100BC0000FE000BF00F040FF401B022809D9A06AD7
:100BD00040F01000A062E06A40F00100E0620120F5
:100BE00070BD20688068C043C007EBD0002070BD96
:100BF000FEE70000014800F0B7BB0000CC02002077
:100C0000014800F0B1BB00006804002070470000FC
:100C100012480021018041808180C1800181418191
:100C20008181C181018241828182C18201834183AC
:100C30008183C183018441848184C184018541858C
:100C40008185C185018641868186C186018741876C
:100C50008187C187A0F8401070470000540F002022
:100C600010B5FFF7D5FF4424214605A004F02EFB64
:100C70002246BDE810400549054803F0C9BD000003
:100C800073697A653A25640D0A000000540F00204C
:100C900000F0030810B54FF4805000F0BFFDBDE830
:100CA00010404FF4004000F0B9BD042000F0B6BD84
:100CB000102000F0B3BD10B5402000F0AFFDBDE83E
:100CC0001040802000F0AABD7047000000B585B03C
:100CD0000020049000900A4802900120039004A98B
:100CE000684600F0B5FC28B106A004F0EFFA012038
:100CF00005B000BD0AA004F0E9FA0020F8E7000002
:100D000000F0030848414C5F464C41534845785F2A
:100D100045726173655F4572726F720D0A00000063
:100D200048414C5F464C41534845785F457261737A
:100D3000655F5375636365720D0A00000649002004
:100D4000C8610648016941F004010161016941F08F
:100D500040010161704700000807002000200240A8
:100D6000064A0021D16106490A6942F002020A617D
:100D70004861086940F0400008617047080700209A
:100D800000200240044B0022DA61044A136943F058
:100D90000103136101807047080700200020024012
:100DA00014480022C168CB06134904D5CA6942F031
:100DB0000202CA611022C3685B0705D5CB6943F004
:100DC0000103CB6142F00402C369DB0707D0CB69A2
:100DD00043F00403CB61C16921F00101C161A2F5B7
:100DE0008071013901D0C2607047C16921F00101F1
:100DF000C1617047002002400807002070B5054619
:100E000000F022FE0646114C09E0681C07D025B10F
:100E100000F01AFE801BA84201D9032070BDE068D3
:100E2000C007F2D1E068800601D52020E060E068CC
:100E3000C00605D4E069C00702D1E068400703D5C9
:100E4000FFF7AEFF012070BD002070BD0020024002
:100E50002DE9F0410C461546064650F824701AE07C
:100E60006D1EAC4205DA56F825003946FFF750FCF6
:100E7000F6D956F8250046F8240000E0641CAC4280
:100E800005DA56F824003946FFF738FCF6D956F84B
:100E9000240046F82500AC42E3DB46F824702046E7
:100EA000BDE8F041FFF7C0BB2DE9F05F2F480468B3
:100EB000606AFFF7C2FB2E4D47F23058C4F8248019
:100EC000DFF8B0904946FFF714FA044628606868D6
:100ED000FFF7E5FBDFF8A0A0DFF8A0B052465B46C5
:100EE000FFF730FBFFF7EEFB06462046FFF7D7FB88
:100EF000234A244BFFF726FB07460C463046FFF7F4
:100F0000CEFB3A462346FFF776FAFFF7DBFB686035
:100F10001D480468606AFFF790FB0835C4F8248018
:100F200001464846FFF7E5F9044628606868FFF780
:100F3000B6FB52465B46FFF705FBFFF7C3FB0646D1
:100F40002046FFF7ACFB0E4A0E4BFFF7FBFA0746B5
:100F50000C463046FFF7A3FB3A462346FFF74BFA11
:100F6000FFF7B0FB6860BDE8F09F0000F4040020CC
:100F7000740100200060EA46713D0AD7A370ED3F7E
:100F80007B14AE47E17AB43F84050020F8B5002415
:100F9000009490F824202546012A12D0012280F8DE
:100FA00024204A681F23072A0DD20668776B521E39
:100FB00002EB820293409F430B6893401F43776389
:100FC00019E00220F8BD06680D2A0AD2376BD21F3D
:100FD00002EB820293409F430B6893401F433763A9
:100FE00009E0F76A0D3A02EB820293409F430B68D7
:100FF00093401F43F7620A68072306680A2A0AD348
:10100000F7680A3A02EB420293409F438B68934091
:101010001F43F76008E0376902EB420293409F43A9
:101020008B6893401F4337610A68102A01D0112A48
:1010300020D1124B02689A4217D193681B0219D42F
:10104000936843F4000393600968102912D10C4996
:101050000C4A0968B1FBF2F101EB8101490000E0A3
:10106000491E00910029FBD104E0816A41F0200172
:101070008162012480F824502046F8BD00240140FC
:101080000C00002040420F002DE9F04104004FF019
:1010900000057FD0A06A002628B9E66284F82460A3
:1010A000204600F081F82046FFF77CFDA16AC906C2
:1010B00000D420B1A06A40F01000A0626AE0A16AEA
:1010C00021F4885141F00201A162334923688B4227
:1010D000E16904D1B1F5402F01D14FF40021277B04
:1010E0004FF4807C41EA470261680A43A168614588
:1010F00008D0012906D0002194F814E0BEF1010FB8
:1011000002D00AE06146F7E7C7B1A76A47F02007B7
:10111000A762E76A47F00107E7625F6827F469475B
:101120000F435F60236899681C4F394011439960F1
:10113000A16861450BD0012909D00CE0DFF860E01F
:10114000A7690EEB47370F4347F40061E5E7218AB3
:101150000D05A5F580152168CB6A23F470032B4398
:10116000CB62216889680F4B1940914208D1E66231
:10117000A16A21F0020141F00101A162BDE8F08104
:10118000A06A20F0020040F01000A062E06A40F087
:101190000100E0620120F1E7003C0140FDF7E1FFC2
:1011A00000E0FFFFFE0E1FFF70B586B0002506466B
:1011B000009501950295039500681A4988422ED141
:1011C0001949886940F400708861886900F40070EA
:1011D0000490886940F0100088618869694600F0D1
:1011E0001000049007200090032001900F4800F0A9
:1011F00021FB104C0E48C4E900058020C4E90250D0
:1012000040002061800060612020C4E9060520467E
:1012100000F0CEF908B1FFF757FD3462666206B000
:1012200070BD000000240140001002400010014089
:1012300008000240CC0200202DE9F05F90F8211058
:101240000024022903D004218163012485E0016880
:101250000A6822F00E020A6001680A6822F00102A0
:101260000A603F4E3E4FB215DFF8F4C0DFF8F09051
:10127000DFF8ECA0DFF8E8B0DFF8E4E00168783FE1
:1012800013011502ACF1640CA9F15009AAF13C0A52
:10129000ABF1280BAEF1140E4FF48018B14227D9F0
:1012A000B9420ED0614512D049451DD0514518D0E4
:1012B000594518D0714501D1424615E0294EB14239
:1012C00001D1012210E0274E1436B14201D1102283
:1012D0000AE0244E2836B14206D0224A3C329142DE
:1012E00001D11A4600E02A461E49091F0A602BE078
:1012F000B94213D0614517D0494522D051451DD080
:1013000059451DD0714501D142461AE0B14202D182
:101310004FF0807215E0134EB14201D1012210E06E
:10132000104E1436B14201D110220AE00D4E28367B
:10133000B14206D00B4A3C32914201D11A4600E03C
:101340002A46074980394A60012180F8211000218E
:1013500080F82010416B01B188472046BDE8F09F1E
:1013600080000240080402402DE9F05FC16B0A686A
:1013700001680B68046C4FF0040808FA04F8844D07
:10138000844E854FDFF814C2DFF81492DFF814A200
:10139000DFF814B2DFF814E218EA020F65D05FEA52
:1013A000437862D50A68920603D40A6822F00402E0
:1013B0000A60DFF8F0814FF48062016808F11408D8
:1013C00013011402414524D9A9420DD0B1420FD0D6
:1013D000B9421AD0614515D0494515D0514501D1C2
:1013E000120312E0594501D104220EE0714501D1EA
:1013F00040220AE06D4D1435A94206D06B4A2832CE
:10140000914201D11A4600E022466749091F0A604D
:1014100029E0A94213D0B14215D0B94220D061458C
:101420001BD049451BD0514502D14FF4800217E033
:10143000414502D14FF0806212E0594501D10422AA
:101440000EE0714501D140220AE0584D1435A94201
:1014500006D0564A2832914201D11A4600E022466F
:101460004B4908394A60C16A71E04FF0020808FA36
:1014700004F818EA020F70D05FEA83786DD50A6825
:10148000920606D40A6822F00A020A60012180F856
:101490002110DFF810814FF40072016808F1140880
:1014A00013011402414524D9A9420DD0B1420FD0F5
:1014B000B9421AD0614515D0494515D0514501D1E1
:1014C000120312E0594501D102220EE0714501D10B
:1014D00020220AE0354D1435A94206D0334A28327D
:1014E000914201D11A4600E022462F49091F0A60A5
:1014F00029E0A94213D0B14215D0B94220D06145AC
:101500001BD049451BD0514502D14FF4001217E0C2
:10151000414502D14FF0007212E0594501D102223B
:101520000EE0714501D120220AE0204D1435A94278
:1015300006D01E4A2832914201D11A4600E02246C6
:10154000134908394A60002180F82010816A002977
:101550001CD0BDE8F05F0847FFE70825A54015420D
:1015600014D01A0712D50A6822F00E020A6090F809
:101570004020C36B012101FA02F25A60816380F8B6
:101580002110002180F82010016BE0E7BDE8F09FFA
:10159000080002401C0002403000024044000240AB
:1015A000580002406C000240080402401C04024043
:1015B00030B560B11A4B026814219A4209D2194B16
:1015C0001344B3FBF1F18900016417490AE00120DB
:1015D00030BD134B5B421344B3FBF1F1890001644E
:1015E0000F490839C163022180F82110136843F6BE
:1015F000F0718B43F0E901142143D0E902452C43FB
:1016000021430469214344692143846921431943E7
:10161000116000214163012242770177084630BD05
:1016200008040240F8FFFDBF0000024070B5044608
:1016300000F00AFA0546601C02D004480078044411
:1016400000F002FA401BA042FAD370BD0000002057
:101650002DE9F047054628480F460126017E01295D
:101660000FD00121814601762868DFF890804CF286
:101670005034022808D0A2462046FFF7BFFBA8B18D
:1016800034E00220BDE8F0872046FFF7B7FB08BB37
:101690000120FFF753FB2046FFF7B0FBD8F81010EE
:1016A000064621F00401C8F810101FE04FF0FF308B
:1016B0003860AC6814E02046FFF752FB5046FFF755
:1016C0009DFBD8F81010060021F00201C8F8101098
:1016D00001D03C600AE00120FFF7A8FF04F5006498
:1016E000D5E9020100EBC120A042E4D8002189F82D
:1016F00018103046C6E7000008070020002002400E
:101700000348016941F08001016100207047000039
:10171000002002402DE9F05F07461C48884600245F
:10172000017E15461E46012909D001218146017618
:101730004CF2503A5046FFF761FB18B122E002200C
:10174000BDE8F09F012F02D0022F00D00427D3461E
:10175000DFF83CA0220128463146FEF736FD81B273
:1017600008EB4400FFF70EFB5846FFF747FBDAF89B
:10177000102022F00102CAF8102018B9641CE4B24B
:10178000BC42E7D3002289F81820D9E708070020D7
:1017900000200240064900200A69120607D5054AC2
:1017A0004A60054A4A600969090600D50120704768
:1017B0000020024023016745AB89EFCD04280FD0FC
:1017C00010281ED0124940281FD080281DD04FF469
:1017D0000042904202D0D210904200D10A8070475D
:1017E0000C4841894A1C42814FF6DC72914206D373
:1017F00000214181018041808180C180018104F00C
:1018000001BF054901200873704708807047000038
:101810006C010020F8090020440A0020044910B59A
:101820000A68024202D00860FFF7C8FF10BD00003E
:10183000140401402DE9F84FDFF8C891002409F1A4
:10184000040A0AF1040B23460F270BF1040ED1E022
:101850000125A54006EA0502AA4276D1DFF8A8C113
:101860004E68A6EB0C0866452BD00DDC032E34D059
:1018700005DC36B3012E19D0022E2FD11BE0112E1C
:1018800016D0122E2AD119E0B8F5881F19D006DC1F
:10189000B8F5803F15D0B8F5801F1FD111E0B8F51D
:1018A000001F0ED0B8F5041F18D10AE0CB6815E070
:1018B000CB681B1D12E0CB6808330FE0CB680C33FC
:1018C0000CE08B682BB1012B4FF0080303D045616E
:1018D00004E0042302E0056100E00023FF2A01D8B0
:1018E000064601E000F104064FEA840501D9A5F19E
:1018F0002005D6F8008007FA05FC28EA0C0803FA50
:1019000005F548EA0508C6F800804D68ED0070D579
:101910003E4DAE6946F00106AE61AD6924F00306A6
:1019200005F0010500953A4D06EB050CDCF8085072
:10193000A607360F07FA06F825EA0805DFF8D4806F
:10194000404503D14FF0000825E052E0DFF8C880A1
:10195000404502D14FF001081DE0DFF8C08040454E
:1019600002D14FF0020816E0DFF8B480404502D102
:101970004FF003080FE0DFF8AC80404502D14FF094
:10198000040808E0DFF8A080404502D14FF00508C8
:1019900001E04FF0060808FA06F848EA0508CCF816
:1019A00008804D68D9F80060ED034D4601D5164317
:1019B00000E096432E604D68DAF80060AD035546AE
:1019C00001D5164300E096432E604D68DBF80060B9
:1019D000ED025D4601D5164300E096432E604D684A
:1019E000DEF80060AD02754601D5164300E096436F
:1019F0002E60641C0A681646E2407FF429AFBDE8F9
:101A0000F88F000000040140000011100010024097
:101A10000000014000080140000C0140001001409E
:101A20000014014000180140001C0140C26821EA76
:101A300002030A4043EA0241016170470AB10161B1
:101A400070470904FBE70000014880687047000008
:101A50000000002070B5040025D094F83D0000255A
:101A600020B984F83C50204600F078FA242084F80D
:101A70003D002068016821F00101016020680168D3
:101A800041F4004101602068016821F400410160D7
:101A900000F060FC4D4A6168914201D84C4900E079
:101AA0004C49884201D2012070BD4B492368B0FBEC
:101AB000F1F15E6826F03F060E435E606368934274
:101AC00006D94FF4967359434FF47A73B1FBF3F18F
:101AD0002368491C1E6A26F03F063143196261687B
:101AE000914210D84900401EB0FBF1F2521CC2F3E3
:101AF0000B02042A01D2042022E0B0FBF1F0401CCA
:101B0000C0F30B001CE0A268F2B301EBC10303EBCE
:101B10000116431EB3FBF6F35B1C43F480431B0525
:101B200049D092B301EBC10202EB0111401EB0FBA0
:101B3000F1F0401CC0F30B0040F4804040F4004042
:101B40002168CA694CF6FF739A431043C861D4E90F
:101B5000071001432068026822F0C00211430160AF
:101B6000D4E9030101432068826848F2FF339A43B5
:101B700011438160D4E9050108432168CA6822F055
:101B8000FF021043C86001E00EE016E02068016823
:101B900041F0010101602564202084F83D002563A7
:101BA00084F83E50002070BD01EB4106431EB3FB9C
:101BB000F6F35B1CB3E70120C2E701EB4101401ED5
:101BC000B0FBF1F0401CC0F30B00B7E7A0860100AA
:101BD00080841E0000093D0040420F002DE9FF4FA8
:101BE00083B00025DDE910799A4693460446DDF876
:101BF00048800095FFF728FF064694F83D0020280E
:101C00007CD11923012285492046009601F062FD0E
:101C10000028F5D194F83C0001286FD0012084F809
:101C20003C0020680168C90703D1016841F0010147
:101C300001602068016821F400610160222084F8BD
:101C40003D00402084F83E0025646762A4F82A9095
:101C5000608D20857248E062CDE9008653465A4681
:101C60002046049901F03EFC00287DD1208DDFF84C
:101C7000B491202768B1012814D002282068016897
:101C80001ED041F480610160206841698069009044
:101C9000B6E02068416981690091016841F40071F2
:101CA0000160ADE02068016821F48061016072B6D6
:101CB0002068416981690091016841F400710AE07E
:101CC00041F40061016072B6206841698169009148
:101CD000016821F48061016062B691E0032868D850
:101CE00001280CD0022843464FF000024946204606
:101CF00000960FD001F0EEFCB0BB10E08BE0324656
:101D00004146204601F065FD70BB20680069616AAC
:101D100008706CE001F0DEFC30BB72B634E0206885
:101D2000016821F48061016072B620680069616A0F
:101D30000870606A401C6062208D401E2085608DA6
:101D4000401E6085384846F2A8110068B0FBF1F0EB
:101D5000C0EBC00000EB80000090401E009008D057
:101D600020684069C04300E029E040070CD5009896
:101D7000F3E744F8305F6773A573206940F02000F3
:101D8000206162B625731AE02068016841F4007191
:101D9000016020680069616A0870606A401C6062C6
:101DA000218D491E2185618D491E618562B621689C
:101DB0001BE032464146204601F00BFD18B10120E0
:101DC00007B0BDE8F08F20680069616A0870606A3A
:101DD000401C6062218D491E2185618D491E6185EF
:101DE00021684A69D24352070AD409690170606ABE
:101DF000401C6062208D401E2085608D401E6085E5
:101E0000208D00287FF46AAF84F83D7084F83E503E
:101E100084F83C50D4E70220D2E700000200100012
:101E20000000FFFF040001000C0000202DE9FF4F1F
:101E300083B09A46DDE9119793460446DDF8408069
:101E4000FFF702FE054694F83D0020287FD11923B4
:101E5000012240492046009501F03CFC002876D143
:101E600094F83C00012872D0012084F83C002068DE
:101E70000168C90703D1016841F0010101602068D0
:101E8000016821F400610160212084F83D004020B8
:101E900084F83E0000262664C4F82480A4F82A9022
:101EA000608D20852C48E062CDE9007553465A4686
:101EB0002046049901F094FB70B930E02A46394677
:101EC000204601F0B9FC58B1206C042804D12068E8
:101ED000016841F400710160012007B0BDE8F08F96
:101EE000606A216800780861606A401C6062218D28
:101EF000491E89B22185628D521E6285226853690E
:101F0000DB435B070BD469B100781061606A401C49
:101F10006062208D401E2085608D401E6085208D72
:101F20000028CBD12A463946204601F0ADFB0028D7
:101F3000CAD154F83D0B016841F4007101602020C2
:101F400004F81E09E67766770020C6E7FFE702205F
:101F5000C3E70000020010000000FFFF30B585B0AD
:101F600000210091019102910391214D0368214CC0
:101F7000122103222048AB421DD1A36943F008037C
:101F8000A361A369039203F0080304931302CDE94C
:101F900000316946FFF74EFC1848416841F0E061A6
:101FA00041F002014160E06940F40010E061E06945
:101FB00000F4001019E0124DAB4217D1A36943F0B1
:101FC0000803A361A369039203F0080304934FF489
:101FD0004063CDE900316946FFF72CFCE06940F42D
:101FE0008000E061E06900F48000049005B030BD3D
:101FF0000054004000100240000C0140000001406D
:10200000005800400248816802781144816070479E
:1020100000000020074810B5016841F01001016080
:10202000032000F079F8002000F006F800F024F812
:10203000002010BD0020024070B50D4D04464FF445
:102040007A712878B1FBF0F00A490968B1FBF0F029
:1020500000F036FC48B9102C07D200222146501E51
:1020600000F03AF800206C6070BD012070BD0000E7
:10207000000000200C0000200E4808B5816941F0E6
:1020800001018161816901F001010091C16941F0A3
:102090008051C161C06900F080500090052000F0BF
:1020A0003BF80548416821F0E06141F00071416072
:1020B00008BD00000010024000000140002809DBBC
:1020C00000F01F02012191404009800000F1E02052
:1020D000C0F8001170470000F0B40E4B1B680C46AE
:1020E000C3F30223C3F10705042D00D90425191DEC
:1020F000072901D2002300E0DB1E012606FA05F1C4
:10210000491E214099409E40761E16403143F0BC46
:1021100003F000B90CED00E0064900F00702086882
:102120004FF6FF03184040EA0220034A10430860BC
:10213000704700000CED00E00000FA052DE9F843BF
:1021400005460078354CC00754D0E0690026C00031
:1021500008D4E06940F08050E061E069012600F0B9
:10216000805000902E480168C90512D4016880464D
:1021700041F480710160FFF767FC074605E000BF8E
:10218000FFF762FCC01B642823D8D8F80000C00504
:10219000F6D5206A10F4407021D0A98801F440716E
:1021A00081421CD0206A1F49012220F440700A603D
:1021B00000220A602062C00711D0FFF745FC0746E5
:1021C00041F2883808E000BFFFF73EFCC11B4145E3
:1021D00002D90320BDE8F883206A8007F4D5206A7D
:1021E000696820F44070084320621EB1E06920F065
:1021F0008050E0612878800705D56068A96820F4E0
:102200004040084360602878C00605D56068696969
:1022100020F48000084360600020DBE700100240EB
:1022200000700040400442422DE9F0470F4605008F
:1022300061D0434E306800F00700B84209D23068E0
:1022400020F0070038433060306800F00700B842E3
:1022500051D128683B4C810712D5400703D56068EF
:1022600040F4E06060602878000703D5606840F4BF
:10227000605060606068A96820F0F000084360600A
:102280002878C00728D06868012810D02168022863
:1022900010D0890700292EDA616821F0030101437B
:1022A0006160FFF7D1FB804641F288390DE021687B
:1022B0008903EFE78901EDE7FFF7C6FBA0EB080113
:1022C000494502D90320BDE8F0876068696800F0DD
:1022D0000C00B0EB810FEFD1306800F00700B8427E
:1022E0000BD9306820F0070038433060306800F0C8
:1022F0000700B84201D00120E5E72878400705D55E
:102300006068E96820F4E0600843606028780007AE
:1023100006D56068296920F4605040EAC100606019
:1023200000F038F86168084AC1F30311515CC840F5
:102330000649086006480068FFF77EFE0020C2E7F5
:102340000020024000100240B89F00080C0000204E
:10235000040000200448054900684968044AC1F3A4
:102360000221515CC84070470C0000200010024060
:10237000C89F00080448054900684968044AC1F339
:10238000C221515CC84070470C0000200010024080
:10239000C89F000812A185B00FC98DE80F0014A0D6
:1023A000144A006804905168134801F00C03042B90
:1023B00010D0082B0ED1C1F38343C9031DF80300CD
:1023C0000AD5516804AAC1F34041515C0A4A5043FE
:1023D000B0FBF1F005B0704708494843FAE7000048
:1023E00002030405060708090A0B0C0D0E0F101056
:1023F000010200000010024000127A0000093D00B6
:102400002DE9F84F040070D02078C04DC00749D0A6
:102410006868C0F38100012807D06868C0F38100B4
:10242000022809D16868C00306D52868800339D519
:1024300060680028E7D035E06068B0F5803F0BD0D9
:1024400010B1B0F5A02F11D0286820F4803028609A
:10245000286820F4802002E0286840F4803028605A
:10246000606890B1FFF7F0FA06460AE0286840F489
:1024700080202860F0E700BFFFF7E6FA801B6428A1
:1024800073D828688003F7D50CE0FFF7DDFA06461D
:1024900005E000BFFFF7D8FA801B6428F0D8286851
:1024A0008003F7D420789A4E80074FF001094FF04F
:1024B000000839D5686810F00C0F07D06868C0F3C1
:1024C0008100022809D16868C00306D42868800703
:1024D00014D52069012808D110E02069B0B1C6F8F0
:1024E0000090FFF7B1FA074605E00AE1FFF7ACFA02
:1024F000C01B0228C4D828688007F7D528686169FE
:1025000020F0F80040EAC10028600DE0C6F8008025
:10251000FFF79AFA074604E0FFF796FAC01B022875
:1025200023D828688007F7D4207800072CD579486D
:10253000A169D9B1C0F80090FFF786FA074604E018
:10254000FFF782FAC01B02280FD8686A8007F7D508
:1025500071484FF4FA510068B0FBF1F0009000BFF1
:102560000098411E0091FAD20EE080E0C0F8008091
:10257000FFF76AFA074604E0FFF766FAC01B022875
:1025800075D8686A8007F7D42078400760D5E86975
:102590000027C00008D4E86940F08050E861E8698D
:1025A000012700F0805000905C480168C90513D4F1
:1025B0000168834641F480710160FFF745FA824665
:1025C00006E000BFFFF740FAA0EB0A0064284ED8EF
:1025D000DBF80000C005F5D5E06801280AD008B195
:1025E000052813D0286A20F001002862286A20F00C
:1025F000040002E0286A40F001002862E06841F22D
:10260000883B98B1FFF720FA82460BE0286A40F039
:1026100004002862EEE700BFFFF716FAA0EB0A01FC
:1026200059455AD8286A8007F6D50CE0FFF70CFA0E
:10263000824605E0FFF708FAA0EB0A0159454CD89D
:10264000286A8007F6D41FB1E86920F08050E8615D
:10265000E06988B36968C1F38101022944D0022886
:10266000C6F8608004D0FFF7EFF9044638E034E0A4
:10267000FFF7EAF9074604E0FFF7E6F9C01B022876
:102680002BD828688001F7D4206AB0F5803F05D1A7
:102690006868A16820F4003008436860D4E9080144
:1026A0000843696821F4741108436860C6F86090B3
:1026B000FFF7CAF9044606E025E000BFFFF7C4F9BA
:1026C000001B022809D828688001F7D51BE000BF4D
:1026D000FFF7BAF9001B022802D90320BDE8F88FE2
:1026E00028688001F4D40EE00128F7D06868226AD7
:1026F00000F48031914204D1616A00F47010884284
:1027000001D00120EAE70020E8E7000000100240C5
:1027100000004242800442420C0000200070004051
:1027200070B5040009D0606A002540B1256165617B
:10273000A56294F8510040B10CE0012070BD6068C2
:10274000B0F5827FF4D0E561F2E784F8505020467E
:1027500000F040F8022084F851002068016821F060
:1027600040010160A088218900F4827001F40441D5
:102770000843A18901F400610843217C01F00201B2
:102780000843217D01F001010843218B01F4007110
:102790000843217F01F03801084394F8201001F02C
:1027A00080010843218D01F400510843216808602D
:1027B000A069042101EA1040216848602068C169CD
:1027C00021F40061C1616565012084F85100002099
:1027D00070BD000070B586B000250095019502958A
:1027E000039506462E4C03682E4902200322A3427D
:1027F00022D18B6943F480538B618B6903F480533E
:1028000004938B6943F004038B618969264C01F0C2
:1028100004010491A021CDE90010039269462046ED
:10282000FFF708F84020CDE90005694620460295EB
:10283000FFF700F806B070BD1C4CA342FAD1CB697B
:1028400043F48043CB61CB6903F4804304938B69E9
:1028500043F008038B618969039201F00801049138
:102860004FF42041CDE9001069461148FEF7E2FF20
:10287000114C104820601020C4E901058020C4E9F3
:1028800003052020C4E905504FF44050E061204684
:10289000FEF78EFE08B1FEF717FAB4646662C9E768
:1028A00000300140001002400008014000380040A4
:1028B000000C0140580002406804002002F0AEBC49
:1028C00010B5401EB0F1807F01D3012010BD4FF044
:1028D000E02460610F21601702F01CFD0020A06160
:1028E00007202061002010BD10B5FFF7E7FF10BDE5
:1028F0007047704770B590F83C20012A2CD0012415
:1029000080F83C40022280F83D2003685A689D68A8
:1029100022F070060A6832435A60104B02689A42ED
:102920000ED00F4B9A420BD0B2F1804F08D00D4B16
:102930009A4205D00C4B9A4202D00C4B9A4204D1D9
:10294000496825F080031943916080F83D400021DB
:1029500080F83C10084670BD022070BD002C01407C
:10296000003401400004004000080040000C00401A
:1029700010B5040003D094F83D0010B107E0012029
:1029800010BD002084F83C00204600F01FF8022013
:1029900084F83D00211D206801F0FEFF012084F82D
:1029A000460084F83E0084F83F0084F8400084F834
:1029B000410084F8420084F8430084F8440084F81D
:1029C000450084F83D00002010BD000008B5174AFE
:1029D00001681748914207D1816941F40061816122
:1029E000806900F4006009E0124A914208D1C1698F
:1029F00041F00201C161C06900F00200009008BD11
:102A00000D4A914207D1C16941F00801C161C06915
:102A100000F00800F2E7094A9142F0D1816941F4DF
:102A200000518161806900F40050E7E7002C01400B
:102A30000010024000040040000C0040003401403F
:102A400070B5044690F83C00012817D0012584F8A1
:102A50003C50022084F83D002068826822F0770212
:102A600022F47F4282600868502830D00DDC202894
:102A70004DD005DC98B310283BD148E0022070BD52
:102A8000302844D0402834D139E0602828D070283C
:102A900006D0B0F5805F2CD0B0F5005F29D10AE0F8
:102AA000CB68D1E90121206801F0C9FF2068816865
:102AB00041F0770109E0CB68D1E90121206801F0FC
:102AC000BEFF2068816841F48041816011E0CA68DE
:102AD0004968206802F088F85021206807E016E075
:102AE000CA684968206802F090F86021206801F007
:102AF000B0FF84F83D50002084F83C0070BDCA68E7
:102B00004968206802F070F840212068EFE72268E9
:102B100001461046EBE72DE9F0410D46040003D0D5
:102B200094F83D0018B108E00120BDE8F0810020D4
:102B300084F83C00204600F041F8022084F83D0073
:102B40002068816844F2070291438160211D20685A
:102B500001F022FF226890689169166A2B68AF69BC
:102B6000034340F20330814341EA0721A868EF693B
:102B700008434FF6FC418843E96840EA07200143D7
:102B800028692F6A000140EA0730084369686D69C7
:102B900026F0220646EA05152943936022689061D3
:102BA00054F8460B0162012004F81F09E0752076F5
:102BB000E0762077A0750020B7E7000000B585B06B
:102BC0000021009101910291039101681F48B1F128
:102BD000804F22D01E4A91421DD1C16941F00401AB
:102BE000C161C16901F004010491816941F00801EA
:102BF00081618069694600F008000490C02000905F
:102C00001448FEF717FE002201211E20FFF764FA88
:102C10001E20FFF753FA05B000BDC16941F0010164
:102C2000C161C16901F001010491816941F00401B0
:102C300081618069694600F00400049003200090DF
:102C4000012002900448FEF7F5FDE4E70010024081
:102C500000080040000C01400008014070B590F8E9
:102C60003E60044690F83F5090F8423090F8432080
:102C7000022021B104290ED0012E1BD114E0012E17
:102C800018D1012B16D184F83E0084F842000122AD
:102C90000021206820E0012D0CD1012A0AD184F8FE
:102CA0003F0084F8430014E0012D03D1012B01D132
:102CB000012A01D0012070BD84F83E0084F83F0055
:102CC00084F8420084F8430001220021206801F0CA
:102CD000A9FE01220421206801F0A4FE20680168F9
:102CE00041F001010160002070BD704770B50446DD
:102CF000006801694FF00005C943890715D4C16810
:102D0000C943890711D4E91E016101202077206899
:102D100080698007204602D0FFF7E7FF04E000F05B
:102D2000E1F8204600F070F9257720680169C94371
:102D3000490717D4C168C943490713D46FF0040188
:102D40000161022020772068806910F4407F2046CE
:102D500002D0FFF7CAFF04E000F0C4F8204600F0FC
:102D600053F9257720680169C943090716D4C1685A
:102D7000C943090712D46FF00801016104202077CC
:102D80002068C0698007204602D0FFF7AEFF04E04C
:102D900000F0A8F8204600F037F92577206801698F
:102DA000C943C90617D4C168C943C90613D46FF013
:102DB00010010161082020772068C06910F4407F6D
:102DC000204602D0FFF791FF04E000F08BF8204688
:102DD00000F01AF9257720680169C943C90708D1AD
:102DE000C168C943C90704D1891E0161204600F0AA
:102DF00067F920680169C943090609D4C168C94354
:102E0000090605D46FF0800101612046FFF770FDCF
:102E100020680169C943490609D4C168C943490604
:102E200005D46FF040010161204600F04AF92068A6
:102E30000169C94389060BD4C168C943890607D40F
:102E40006FF0200101612046BDE87040FFF751BDE1
:102E500070BD000000B585B0002100910191029184
:102E600003911A4B02681A4802219A421AD18269C8
:102E700042F0080282618069039100F0080004902A
:102E80003320CDE9000169461248FEF7D3FC124811
:102E9000416821F4406141F0E06141F4006141602A
:102EA00005B000BD0D4B9A42FAD1826942F004028E
:102EB00082618069039100F0040004900C20CDE948
:102EC000000169460648FEF7B5FCE9E7000400404A
:102ED00000100240000C014000000140000C0040C6
:102EE00000080140704770B5044690F83C000D465C
:102EF00001280AD0012084F83C0042B1042A18D0ED
:102F0000082A2AD00C2A4DD139E0022070BD206851
:102F100001F0A8FD2068816941F008018161206805
:102F2000816921F004018161206881692A69114366
:102F300011E0206801F0C6FD2068816941F400615C
:102F400081612068816921F48061816120688169E3
:102F50002A6941EA0221816124E0206801F0E8FD4C
:102F60002068C16941F00801C1612068C16921F090
:102F70000401C1612068C1692A69114311E0206818
:102F800001F00AFE2068C16941F40061C161206856
:102F9000C16921F48061C1612068C1692A6941EA7F
:102FA0000221C161002084F83C0070BD10B504000E
:102FB00003D094F83D0010B107E0012010BD0020BF
:102FC00084F83C00204600F01EF8022084F83D0002
:102FD000211D206801F0E0FC012084F8460084F8FF
:102FE0003E0084F83F0084F8400084F8410084F8F3
:102FF000420084F8430084F8440084F8450084F8D3
:103000003D00002010BD70477047000010B5044619
:10301000022249B104290ED0082913D094F84100A6
:10302000012816D0012010BD94F83E000128F9D1E6
:1030300084F83E200FE094F83F000128F2D184F894
:103040003F2008E094F840000128EBD184F84020AC
:1030500001E084F841200122206801F0E3FC1349DB
:103060002068134A884201D0904203D1436C43F454
:1030700000434364206888420DD090420BD0B0F1E9
:10308000804F08D00B49884205D00B49884202D0B6
:103090000A49884204D1816801F00701062903D05A
:1030A000016841F001010160002010BD002C0140C9
:1030B000003401400004004000080040000C0040C3
:1030C000704770477047000070B50268044610688A
:1030D000D168536910F00F0F52D003F0010501F4CD
:1030E00090762E435FD0C20705D0CA0503D5E26BA8
:1030F00042F00102E263420705D5DA0703D0E26B32
:1031000042F00202E263820705D5DA0703D0E26BE0
:1031100042F00402E263020707D501F020022A43CD
:1031200003D0E26B42F00802E263E26B002A33D084
:10313000800604D5880602D5204601F09FFE20684F
:103140004069E16BC0F38010090700D428B3204622
:1031500001F086FE2068416949061AD5416921F0CF
:1031600040014161606BA0B12D494163606BFEF786
:1031700063F8002810D0606B416BBDE870400847D1
:10318000830610D58B060ED52046BDE8704001F0B1
:1031900075BE2046FFF796FF70BD2046FFF792FFF1
:1031A0000020E06370BD03062BD50B0629D594F8EB
:1031B00039002128F6D1A068B0F5805F01D12069DF
:1031C000B0B1206A411C2162216800784860E08C1F
:1031D000401E0004000CE084E4D12068C16821F0A6
:1031E0008001C1602068C16841F04001C16070BDCC
:1031F000206A0088C0F308005060206A801C2062AA
:10320000E5E74006F3D54806F1D5D168204621F020
:103210004001D160202184F8391000F04AF970BDD6
:10322000514E000870B5040004D094F83900002510
:1032300010B106E0012070BD84F83850204600F03F
:1032400023F8242084F839002068C16821F4005153
:10325000C160204601F058FE2068016921F49041C8
:1032600001612068416921F02A0141612068C1683B
:1032700041F40051C160E563202084F8390084F8EE
:103280003A00002070BD000070B586B000240094A4
:1032900001940294039403682E482D4E05150221D3
:1032A0000322B34226D1C36943F40023C361C36937
:1032B00003F400230493836943F01003836180695E
:1032C000CDE9005100F01000CDE90320224D694600
:1032D0002846FEF7AFFAE814CDE90004694628460F
:1032E0000294FEF7A7FA002203213420FEF7F4FE31
:1032F000342028E0194EB34227D1836943F4804338
:103300008361836903F480430493836943F0040376
:1033100083618069039200F0040004907015CDE988
:1033200000010F4E69463046FEF784FACDE900549D
:10333000694630460294FEF77DFA002203212520DB
:10334000FEF7CAFE2520FEF7B9FE06B070BD0000EC
:10335000004C0040001002400010014000380140C5
:103360000008014090F83A30202B22D1F9B1F2B197
:1033700090F83830012B1CD081628285C2850021F3
:10338000C163222280F83A2080F838100168CA68A8
:1033900042F48072CA6001684A6942F001024A61DF
:1033A0000068C16841F02001C16000207047012021
:1033B000704702207047000070B5006809498842D4
:1033C0000FD1142208490948FFF7CCFF064D00240D
:1033D00007A035F8141001F079FF641C24B2092C01
:1033E000F6DD70BD003801405C060020C4060020F8
:1033F00052784275666665723A25640D0A000000CF
:103400002DE9F843044690F839001F4616460D464C
:1034100020284CD1C5B1BEB194F83800012846D05F
:10342000012084F838004FF00008C4F83C802120C7
:1034300084F83900FEF708FBA6848146E684A0687C
:10344000B0F5805F03D004E00120BDE8F883206977
:1034500028B12E465FF0000584F838800EE0002683
:10346000FAE78021204601F0ABFDA0B9AEB116F815
:10347000010B21684860E08C401EE084E08C4B46E4
:103480004FF0000200970028EBD14FF0400120469A
:1034900001F096FD30B10320D7E735F8020BC0F3F9
:1034A0000800E6E7202084F839000020CDE702205C
:1034B000CBE77047FEE701684A69D24352050FD453
:1034C0006FF480624A61002140F8301F202242736D
:1034D0008173026942F004020261017301207047A6
:1034E000002070472DE9F84F0446006889460B9D7F
:1034F00001689846174641F48061016020680168C0
:1035000041F48071016000954FF0011B0022594683
:1035100020460A9B00F0DEF84FF4007A40B12068A4
:103520000068C00501D5C4F840A00320BDE8F88FAD
:10353000216809F0FE0008612B46284920460A9AB6
:1035400000F0FCF8F0BB20684169806900902A46D1
:1035500020460A9900F070F940B1206C04283AD155
:103560002068016841F40071016034E0FEB2B8F1F6
:10357000010F09D02168380A08612A4620460A99B5
:1035800000F05AF90028E8D1206806612A46204652
:103590000A9900F051F90028DFD12068016841F450
:1035A0008071016000950022594620460A9B00F078
:1035B00091F80028B3D1216809F0FF0040F0010024
:1035C000086100E007E02B46044920460A9A00F013
:1035D000B5F80028AAD00120A8E7000002000100E9
:1035E0002DE9F843044600680D46DDE908970168B7
:1035F0009846164641F4807101604B4600224FF018
:1036000001112046009700F065F848B12068006875
:10361000C00502D54FF4007020640320BDE8F88394
:10362000216805F0FE0008613B464A4615492046E0
:1036300000F084F888B920684169806900903A46B2
:103640004946204600F0F8F848B1206C042804D11F
:103650002068016841F4007101600120DEE7F5B2E5
:10366000B8F1010F09D02168300A08613A4649468D
:10367000204600F0E1F80028E7D12068056100202D
:10368000CCE700000200010070B516460D46044666
:103690000DE02046FFF70FFF08B1012070BD681C48
:1036A00005D0FEF7D1F9801BA84207D835B12068B4
:1036B0004069C0434007ECD4002070BD002044F8AE
:1036C000300F20216173A073216941F02001216135
:1036D0002073E2E72DE9F0471E4690460D4604466A
:1036E000C1F30747DDF8209008E0701C06D0FEF714
:1036F000ABF9A0EB0900B0420FD876B12068012FDA
:1037000018D0806925EA00000004000C14D00021C4
:103710004145EAD00020BDE8F087002044F8300F92
:1037200020216173A073216941F020012161207380
:103730000120F0E74069E5E70121E9E72DE9F047DD
:103740009A4691460E46044600254FF02008C1F3E4
:10375000074725E020684069C043400514D420682D
:10376000016841F40071016021686FF48060486174
:10377000256384F83D8084F83E50206C40F00400BE
:10378000206484F83C501FE0B9F1FF3F08D0FEF7F9
:103790005BF9A0EB0A0149450CD8B9F1000F09D03B
:1037A0002068012F13D0806926EA00000004000C75
:1037B0000BD0CFE744F8305F84F80D80A573206903
:1037C00040F02000206125730120BDE8F0874069AA
:1037D000EAE72DE9F041002590460E4604462027F1
:1037E00017E04069C043C0060CD454F8301B6FF09A
:1037F0001000486144F810596777A577206A206265
:10380000257717E0FEF720F9A0EB0800B04208D8B2
:103810003EB120684169C9434906E2D40020BDE8B1
:10382000F08144F8305F6773A573206940F0200091
:10383000206125730120F2E770B516460D46044657
:103840000DE02046FFF737FE08B1012070BD681C6F
:1038500005D0FEF7F9F8801BA84207D835B12068DB
:103860004069C0430006ECD4002070BD002044F83D
:10387000300F20216173A073216941F02001216183
:103880002073E2E770B5064614460D461046FCF775
:1038900035FF01D2304670BD21463046FCF738FF77
:1038A00001D8204600E0304604462946FCF726FFB2
:1038B00001D8284670BD204670BD00003EB50021ED
:1038C0001D48009101911B4A02910260921582608D
:1038D00001240473017503254FF460220561C26160
:1038E0004160FDF7D1FB08B1FDF7EEF90A20CDE903
:1038F00000040720029069460F48FDF747FB08B116
:10390000FDF7E2F90B2000900220019069460A4879
:10391000FDF73CFB08B1FDF7D7F90C20CDE9000518
:1039200069460548FDF732FB002801D0FDF7CCF9C8
:103930003EBD0000002401409C0200200D4808B557
:10394000416941F0010141614069002200F001003C
:10395000009011460B20FEF7BFFB0B20FEF7AEFBDD
:10396000002211460F20FEF7B7FBBDE808400F20EC
:10397000FEF7A4BB001002402DE9F04F85B00024F3
:103980005E480094019402940394816941F010010F
:103990008161816901F010010491816941F0200188
:1039A0008161816901F020010491816941F0040184
:1039B0008161816901F004010491816941F008018C
:1039C00081618069DFF838A100F0080004900022CE
:1039D0004FF228315046FEF731F8DFF828B10022C7
:1039E00010215846FEF72AF8002204214648FEF727
:1039F00025F8002208214548FEF720F84FF2203034
:103A000001250326CDE90005CDE902466946504669
:103A1000FDF710FF02204FF00809CDE90240CDE983
:103A2000009569465046FDF705FF1027009703965D
:103A3000CDE9015469465846FDF7FCFE344800972D
:103A4000CDE9010469465046FDF7F4FE4FF0040845
:103A5000304FCDF80080CDE9017469462B48FDF761
:103A6000E9FE2803CDE90007694602952748FDF7DE
:103A7000E1FEC020CDE90007694602955046FDF7FA
:103A8000D9FEE803CDE90007694602955846FDF7DF
:103A9000D1FECDF800800396CDE9015469461A485D
:103AA000FDF7C8FECDF800900396CDE901546946B4
:103AB0001648FDF7BFFE012211460820FEF70CFB59
:103AC0000820FEF7FBFA002202210A20FEF704FB81
:103AD0000A20FEF7F3FA002203211720FEF7FCFA72
:103AE0001720FEF7EBFA002203212820FEF7F4FA54
:103AF0002820FEF7E3FA05B0BDE8F08F0010024081
:103B0000001001400008014000140140000C014079
:103B100000002110000011100D4810B50B49016084
:103B20000C49416000214FF480428160C0E90312DA
:103B300041618161C1610162FDF78CFF002803D002
:103B4000BDE81040FDF7C0B810BD000000540040B3
:103B500010030020801A06000D4810B50B490160C3
:103B60000C49416000214FF480428160C0E903129A
:103B700041618161C1610162FDF76CFF002803D0E2
:103B8000BDE81040FDF7A0B810BD0000005800408F
:103B900064030020801A0600104810B50E49016029
:103BA0004FF48271416000218160C1604FF4007266
:103BB0000161C0E905121022C0E90721416281625A
:103BC0000721C162FEF7ACFD002803D0BDE810401C
:103BD000FDF77AB810BD000000300140B8030020A6
:103BE000104810B50E4901604FF482714160002108
:103BF0008160C1604FF400720161C0E905120822C2
:103C0000C0E90721416281620A21C162FEF788FD95
:103C1000002803D0BDE81040FDF756B810BD0000E5
:103C2000003800401004002010B586B0002417486A
:103C30000094019402940394049413490594C0E9F8
:103C400000144FF6FF71C0E90241046144618461D0
:103C5000FEF78EFE08B1FDF737F84FF48050009064
:103C600069460A48FEF7ECFE08B1FDF72DF804940A
:103C700004A906480594FEF73DFE002801D0FDF793
:103C800023F806B010BD0000002C0140AC04002059
:103C900010B58CB024216846FCF7C1FA0024164800
:103CA00009944FF080410A94C0E900144FF6FF7167
:103CB000C0E90241046184610320CDE900040120D0
:103CC000CDE9020408210491CDE90540CDE9074181
:103CD00069460948FEF71FFF08B1FCF7F5FF099494
:103CE00009A905480A94FEF705FE002801D0FCF753
:103CF000EBFF0CB010BD0000F404002010B58EB036
:103D000000240794089409940A940B941C21684693
:103D10000C94FCF784FA2B48294901603F21C0E943
:103D200001144FF47A71C0E9031480218161FEF718
:103D30001FFE08B1FCF7C8FF4FF48050079007A999
:103D40002048FEF77DFE08B1FCF7BEFF1D48FFF7D7
:103D50002DF908B1FCF7B8FF0B940BA919480C9486
:103D6000FEF7C8FD08B1FCF7AFFF6020CDE9000405
:103D700002940022694613480494FFF7B4F808B18E
:103D8000FCF7A2FF042269460E48FFF7ACF808B121
:103D9000FCF79AFF082269460A48FFF7A4F808B121
:103DA000FCF792FF0C2269460648FFF79CF808B121
:103DB000FCF78AFF0348FFF74DF80EB010BD000076
:103DC000000400403C05002010B58CB0242168465A
:103DD000FCF725FA00241648099414490A94C0E90E
:103DE00000144FF6FF71C0E90241046184610320B1
:103DF000CDE900040120CDE9020408210491CDE9B8
:103E00000540CDE9074169460948FEF784FE08B13F
:103E1000FCF75AFF099409A905480A94FEF76AFDC0
:103E2000002801D0FCF750FF0CB010BD0008004086
:103E30008405002010B58EB00024079408940994DE
:103E40000A940B941C2168460C94FCF7E8F923486B
:103E5000214901600321C0E901144FF46171C0E9F7
:103E6000031480218161FEF783FD08B1FCF72CFF6C
:103E70004FF48050079007A91848FEF7E1FD08B1FC
:103E8000FCF722FF1548FFF791F808B1FCF71CFF7B
:103E90000B940BA911480C94FEF72CFD08B1FCF70C
:103EA00013FF6020CDE900040294082269460B4804
:103EB0000494FFF718F808B1FCF706FF0C226946D6
:103EC0000648FFF710F808B1FCF7FEFE0348FEF7BE
:103ED000C1FF0EB010BD0000000C0040CC0500205A
:103EE00010B586B0002418480094019402940394FD
:103EF000049414490594016040F2C621C0E90114FC
:103F00004FF4E161C0E903148021C0E90541FEF7E7
:103F10002FFD08B1FCF7D8FE4FF4805000906946A1
:103F20000948FEF78DFD08B1FCF7CEFE049404A904
:103F300005480594FEF7DEFC002801D0FCF7C4FE1E
:103F400006B010BD00340140140600200C4810B526
:103F50000A4901604FF4E1314160002181600C2287
:103F6000C160C0E904128161C161FFF75BF90028FB
:103F700003D0BDE81040FCF7A7BE10BD004C0040C8
:103F8000840600200C4810B50A4901600B494160C5
:103F9000002181600C22C160C0E904128161C1610D
:103FA000FFF740F9002803D0BDE81040FCF78CBEB5
:103FB00010BD000000380140C4060020009411002C
:103FC000FEE700000EB56420CDE9003202900A46FB
:103FD0000123D0210348FDF701FE002800D0012075
:103FE0000EBD0000100300200EB56420CDE90032A4
:103FF00002900A460123D0210348FDF717FF00284D
:1040000000D001200EBD000010030020704700000A
:104010002DE9F04190460A46044641461046FCF719
:1040200068F9E0600646A169FCF763F9054660613E
:1040300031462068FCF763F90746A06294F838001F
:10404000FCF7FBFA6168FCF75AF92169FCF757F9AC
:104050000646E0622946A068FCF751F90546206350
:1040600031463846FCF7F3F82946FCF7F0F8606370
:10407000194800250078012804D02561E068A06176
:10408000BDE8F0814046216AFCF742FB06D3206A76
:10409000414680F00040FCF73BFB02D284F83850E8
:1040A000ECE7012084F83800D4E90310FCF7CFF8DE
:1040B0002061616AFCF72CFB01D2606A2061606AB2
:1040C000216980F00040FCF723FBD7D2606A80F0C2
:1040D00000402061D2E700006E01002010B54422AC
:1040E0008349844800F08AFB00F0A2FD80494FF626
:1040F000FF70CA88824209D10A88824206D1898922
:10410000814203D1FCF7ACFD7BA000E080A001F070
:10411000DDF884A001F0DAF8914C2068FCF7BFFAD2
:1041200002460B468FA001F0D1F86068FCF7B7FAA1
:1041300002460B4692A001F0C9F8A068FCF7AFFA5E
:1041400002460B4695A001F0C1F89B4C2068FCF795
:10415000A6FA02460B4699A001F0B8F86068FCF791
:104160009EFA02460B469CA001F0B0F8A068FCF74E
:1041700096FA02460B469FA001F0A8F8A44C2068CE
:10418000FCF78DFA02460B46A2A001F09FF860688A
:10419000FCF785FA02460B46A5A001F097F8A06847
:1041A000FCF77DFA02460B46A8A001F08FF8AEA0FE
:1041B00001F08CF8BC4C2068FCF771FA02460B4603
:1041C000BAA001F083F86068FCF769FA02460B4672
:1041D000BDA001F07BF8A068FCF761FA02460B462F
:1041E000C0A001F073F8C64C2068FCF758FA0246EC
:1041F0000B46C4A001F06AF86068FCF750FA02466A
:104200000B46C7A001F062F8A068FCF748FA024626
:104210000B46CAA001F05AF8CF4C2068FCF73FFAD1
:1042200002460B46CDA001F051F86068FCF737FA62
:1042300002460B46D0A001F049F8A068FCF72FFA1F
:1042400002460B46D3A001F041F887A001F03EF8EA
:10425000D74C2068FCF723FA02460B46D5A001F0A4
:1042600035F86068FCF71BFA02460B46D8A001F04F
:104270002DF8A068FCF713FA02460B46DBA001F00C
:1042800025F8E14C2068FCF70AFA02460B46DFA04D
:1042900001F01CF86068FCF702FA02460B46E2A047
:1042A00001F014F8A068FCF7FAF902460B46E5A005
:1042B00001F00CF8EA4C2068FCF7F1F902460B46D5
:1042C000E8A001F003F86068FCF7E9F902460B4644
:1042D000EBA000F0FBFFA068FCF7E1F902460B46FB
:1042E000EEA000F0F3FFF4A000F0F0FF04E2000005
:1042F000540F002000F00308466C6173682052657B
:104300006164204572726F722121210D0A00000044
:10431000466C6173682052656164204F4B212121F6
:104320000D0A00000D2A2A2A2A2A2A2A2A2A2A2A9B
:104330002A2A2A2A50494420416E676C65206C6FF6
:104340006F7020706172616D657465722A2A2A2A05
:104350002A2A2A2A2A2A2A2A2A2A2A2A0D0A00004E
:10436000A00700200D5049445F524F4C5F416E67DB
:104370006C652E50203D2025302E32660D0A00003F
:104380000D5049445F524F4C5F416E676C652E493A
:10439000203D2025302E32660D0A00000D50494484
:1043A0005F524F4C5F416E676C652E44203D202567
:1043B000302E32660D0A0000DC0700200D50494403
:1043C0005F5049545F416E676C652E50203D20253B
:1043D000302E32660D0A00000D5049445F5049549A
:1043E0005F416E676C652E49203D2025302E326678
:1043F0000D0A00000D5049445F5049545F416E67FB
:104400006C652E44203D2025302E32660D0A0000BA
:10441000180800200D5049445F5941575F416E67AD
:104420006C652E50203D2025302E32660D0A00008E
:104430000D5049445F5941575F416E676C652E4985
:10444000203D2025302E32660D0A00000D504944D3
:104450005F5941575F416E676C652E44203D2025B2
:10446000302E32660D0A00000D2A2A2A2A2A2A2A0C
:104470002A2A2A2A2A2A2A2A50494420416E676C6D
:104480006552617465206C6F6F7020706172616D30
:10449000657465722A2A2A2A2A2A2A2A2A2A2A2A74
:1044A0002A2A0D0A00000000540800200D5049443B
:1044B0005F524F4C5F526174652E50203D20253075
:1044C0002E32660D0A0000000D5049445F524F4CD9
:1044D0005F526174652E49203D2025302E32660DD5
:1044E0000A0000000D5049445F524F4C5F52617406
:1044F000652E44203D2025302E32660D0A00000036
:10450000900800200D5049445F5049545F52617437
:10451000652E50203D2025302E32660D0A00000009
:104520000D5049445F5049545F526174652E4920D3
:104530003D2025302E32660D0A0000000D50494402
:104540005F5049545F526174652E44203D202530F0
:104550002E32660D0A000000CC0800200D504944A0
:104560005F5941575F526174652E50203D202530C0
:104570002E32660D0A0000000D5049445F59415724
:104580005F526174652E49203D2025302E32660D24
:104590000A0000000D5049445F5941575F52617451
:1045A000652E44203D2025302E32660D0A00000085
:1045B000080900200D5049445F524F4C5F5370650D
:1045C00065642E50203D2025302E32660D0A0000F5
:1045D0000D5049445F524F4C5F53706565642E49DE
:1045E000203D2025302E32660D0A00000D50494432
:1045F0005F524F4C5F53706565642E44203D20250B
:10460000302E32660D0A0000440900200D50494446
:104610005F5049545F53706565642E50203D2025DE
:10462000302E32660D0A00000D5049445F50495447
:104630005F53706565642E49203D2025302E32661B
:104640000D0A00000D5049445F5049545F53706596
:1046500065642E44203D2025302E32660D0A000070
:10466000800900200D5049445F5941575F537065E0
:1046700065642E50203D2025302E32660D0A000044
:104680000D5049445F5941575F53706565642E4929
:10469000203D2025302E32660D0A00000D50494481
:1046A0005F5941575F53706565642E44203D202556
:1046B000302E32660D0A00000D2A2A2A2A2A2A2ABA
:1046C0002A2A2A2A2A2A2A2A2A2A50494420414CBC
:1046D0005452617465206C6F6F7020706172616DEF
:1046E000657465722A2A2A2A2A2A2A2A2A2A2A2A22
:1046F0002A2A0D0A000000000E4C2068FBF7CFFFAD
:1047000002460B460CA000F0E1FD6068FBF7C7FF16
:1047100002460B460FA000F0D9FDA068FBF7BFFFD3
:1047200002460B4612A000F0D1FDBDE8104017A0D4
:1047300000F0CCBDBC0900200D5049445F414C54F1
:104740005F526174652E50203D2025302E32660D5B
:104750000A0000000D5049445F414C545F5261749F
:10476000652E49203D2025302E32660D0A000000BE
:104770000D5049445F414C545F526174652E442092
:104780003D2025302E32660D0A0000000D2A2A2A0F
:104790002A2A2A2A2A2A2A2A2A2A2A2A2A2A2A2A79
:1047A0002A50494420414C54206C6F6F7020706136
:1047B00072616D657465722A2A2A2A2A2A2A2A2A8F
:1047C0002A2A2A2A2A2A2A0D0A00000070472DE9DF
:1047D000F04114460D460646A1420DDAFCF738FBBF
:1047E000FBF730FF0746421E29463046FFF7EFFF32
:1047F0002246791C3046ECE7BDE8F08110B5002375
:1048000003E010C841F823405B1C9342F9D310BD6C
:104810002DE9F04104460026A0F1006017468846C5
:10482000B0F5802F2AD2FCF7B5FF254604EB8707A9
:10483000294613A000F04AFD15482C46854208D3AE
:1048400016E02868401C03D0FCF740FA064600E05A
:104850002D1DBD42F5D35EB10CE0002321460220A0
:10486000D8F80020FCF756FF20B908F10408241DF1
:10487000BC42F2D3BDE8F041FCF742BFBDE8F08195
:104880005772697465416464723A25780D0A0000B4
:1048900000F80308704700002DE9F05F1D4D8B46BE
:1048A00001461B4F287814464FF0000A47F82010A5
:1048B000401CC0B22870A04202D26878002825D1DE
:1048C0004FF0000885F80180621E41461048FFF74E
:1048D0007EFF0126B946671E08E000BF59F8261082
:1048E0005046FBF7B4FC761C8246F6B2BE42F5DBBE
:1048F0002878A04201D385F80080A01EFBF794FE23
:1049000001465046FBF72DFDCBF80000BDE8F09FB7
:10491000540A00208401002010B5FDF773FBBDE8A8
:104920001040FDF7E1BF30B595B028216846FBF790
:1049300076FC14210AA8FBF772FC18210FA8FBF7DC
:104940006EFC01210804CDE9001000240294022528
:104950000491CDE907504FF4E01009906846FDF747
:104960004FFD0F20CDE90A056802CDE90C40022178
:104970000AA80E94FDF758FCA80311900F950FA8F4
:10498000FDF7DCFB15B030BD704700000148FEF7B5
:10499000ADB9000084050020F0B502681C4B1D4D28
:1049A0001D4E1E4F1E4C4FF0804C984209D0A04225
:1049B00007D0604505D0A84203D0B04201D0B8422C
:1049C00004D122F0700E4A6842EA0E02984209D0E1
:1049D000A04207D0604505D0A84203D0B04201D024
:1049E000B84203D122F44075CA682A434D6922F0C7
:1049F00080022A4302608A68C2620A688262984220
:104A000001D0A04201D10969016301214161F0BDDA
:104A1000002C01400004004000080040000C004051
:104A20000034014010B501F01F030121046A9940D0
:104A30008C430462016A9A401143016210BD10B5B3
:104A4000846842EA032224F47F440A4322438260BA
:104A500010BD826822F070020A4342F007018160B3
:104A600070470000F0B5026A22F001020262036A98
:104A700042688469124E24F073050C682C4323F0BD
:104A800002058B682B430D4DA84201D0B04205D1E1
:104A900023F00807CB683B4323F00403A84201D06E
:104AA000B04205D14D6922F4407215438A692A4308
:104AB00042608461496841630362F0BD002C01409B
:104AC00000340140F0B5026A22F010020262026A6C
:104AD000436884690D6824F4E64444EA05248D683B
:104AE00022F0200242EA05120F4D104EA84201D0DA
:104AF000B04206D1CF6822F0800242EA071222F0CB
:104B00004002A84201D0B04207D14D6923F440636E
:104B100043EA85038D6943EA8503436084614968FC
:104B200081630262F0BD0000002C014000340140AE
:104B3000F0B5026A22F480720262026A4368C469B4
:104B400022F4007224F073050C68124E2C438D6819
:104B500042EA05220E4DA84201D0B04206D1CF68EC
:104B600022F4006242EA072222F48062A84201D0C5
:104B7000B04207D14D6923F4405343EA05138D69D0
:104B800043EA05134360C4614968C1630262F0BD32
:104B9000002C01400034014030B5026A22F48052FA
:104BA0000262046A4268C3690D6823F4E64343EA7B
:104BB00005238D6824F4005444EA0534084DA842C6
:104BC00002D0084DA84204D14D6922F4804242EA45
:104BD00085124260C36149680164046230BD00000F
:104BE000002C01400034014010B5036A046A24F02F
:104BF00001040462846924F0F00444EA021423F0FE
:104C00000A020A438461026210BD10B5036A23F0F0
:104C1000100303628369046A23F4704343EA023297
:104C200024F0A00343EA01118261016210BD00007B
:104C300070B56F4C2088FBF700FD6E4E3146FBF7D8
:104C400090FB6D4D28606088FBF7F7FC3146FBF761
:104C500088FB6860A088FBF7F0FC3146FBF781FB1E
:104C6000A860E088FBF7E9FC3146FBF77AFB634D6F
:104C700028602089FBF7E1FC3146FBF772FB686096
:104C80006089FBF7DAFC3146FBF76BFBA860A08973
:104C9000FBF7D3FC3146FBF764FB594D2860E089F4
:104CA000FBF7CBFC3146FBF75CFB6860208AFBF727
:104CB000C4FC3146FBF755FBA860608AFBF7BDFCDE
:104CC0003146FBF74EFB4F4D2860A08AFBF7B5FC41
:104CD0003146FBF746FB6860E08AFBF7AEFC3146E5
:104CE000FBF73FFBA860208BFBF7A7FC3146FBF7E7
:104CF00038FB454D2860608BFBF79FFC3146FBF786
:104D000030FB6860A08BFBF798FC3146FBF729FB72
:104D1000A860E08BFBF791FC3146FBF722FB3B4D93
:104D20002860208CFBF789FC3146FBF71AFB686092
:104D3000608CFBF782FC3146FBF713FBA860A08C6C
:104D4000FBF77BFC3146FBF70CFB314D2860E08C18
:104D5000FBF773FC3146FBF704FB6860208DFBF723
:104D60006CFC3146FBF7FDFAA860608DFBF765FC33
:104D70003146FBF7F6FA274D2860A08DFBF75DFC66
:104D80003146FBF7EEFA6860E08DFBF756FC3146E2
:104D9000FBF7E7FAA860208EFBF74FFC3146FBF7E4
:104DA000E0FA1D4D2860608EFBF747FC3146FBF7AB
:104DB000D8FA6860A08EFBF740FC3146FBF7D1FAC9
:104DC000A860E08EFBF739FC3146FBF7CAFA134DB9
:104DD0002860208FFBF731FC3146FBF7C2FA686090
:104DE000608FFBF72AFC3146FBF7BBFAA86070BD69
:104DF000540F002000007A44A0070020DC070020A8
:104E0000180800205408002090080020CC0800203A
:104E1000080900204409002080090020BC09002066
:104E200010B5064C6089A188401A142805DB0821BA
:104E30000348FCF7FBFD6089A08010BDF809002045
:104E4000001001400148FEF73FB900008406002031
:104E500010B5406A0021C185C184FEF733F910BD49
:104E60000168CA6822F49072CA6001684A6922F037
:104E700001024A61202180F83A10704710B590F87D
:104E80003A10222901D0022010BD82684FF48053CD
:104E90009A4201D1016921B1816A9A421BD04AB17B
:104EA0000AE00268816A5268C2F308020A80816AD5
:104EB000891C08E0026972B10268526802F07F0240
:104EC0000A70816A491C8162C18D491E0904090C5E
:104ED000C18503D016E002685268F1E70168CA682C
:104EE00022F02002CA600168CA6822F48072CA6097
:104EF00001684A6922F001024A61202180F83A10D3
:104F0000FEF75AFA002010BD70B50446006801692A
:104F1000E26821F44051114301612169A06808430E
:104F2000616908432168CA6841F20C639A430243ED
:104F3000CA6020684169A26921F44071114341614E
:104F40001E492068884202D1FDF714FA01E0FDF7FE
:104F500001FA00EBC00101EB0012606864218000DF
:104F6000B2FBF0F3B3FBF1F36FF018067343B2FB3F
:104F7000F0F5B2FBF0F605EB8305322303EB0515E4
:104F8000B5FBF1F5B6FBF1F605F0F00505EB0615FE
:104F9000B2FBF0F6B2FBF0F0B0FBF1F06FF01802EC
:104FA000504306EB800003EB0010B0FBF1F02168EA
:104FB00000F00F002844886070BD000000380140F8
:104FC0002DE9F041984617460E460446069D1DE021
:104FD000681C1BD02DB1FCF737FDA0EB0800A842E0
:104FE00014D92068C16821F4D071C160206841697A
:104FF00021F001014161202084F8390084F83A0051
:10500000002084F838000320BDE8F08120680068A3
:1050100036EA000004D00020B842D9D00020F3E7DF
:105020000120F9E70148FEF74FB80000C406002050
:10503000FEE7F0B5DDE9055481B3B0F5B47F01D3E7
:1050400040F267103C26B0FBF6F7B0FBF6FC06FB1F
:10505000170E01FB0EF0B0FBF6F0C0F1FF0050435D
:10506000C71700EB1760C0F30F27CEF13B00484392
:1050700090FBF6F0C0F1FF005043C61700EB16603E
:10508000C0F30F26C1F1FF005043000ABCF1050F29
:1050900019D2DFE80CF006090D1115001A702A70FC
:1050A0000CE01A702E7001E01F702A702070F0BDA5
:1050B00018702A702670F0BD18702F702270F0BD25
:1050C0001E702870FAE71A7028702770F0BDF0B5CE
:1050D0008842DDE9057601D2054600E00D4695429D
:1050E00000D31546884201D9044600E00C4694429C
:1050F00000D81446651B34702D042D0C4FF00006AB
:1051000013D094B164266E43B6FBF4F6C6EB062CBE
:105110006426BCFBF6FC87F800C0A04208D1881AC0
:105120006421484390FBF5F013E03E701E80F0BD13
:10513000A14207D1101A6421484390FBF5F000F515
:10514000347006E0401A6421484390FBF5F000F506
:10515000B46000B2C0EB0010800000B290FBF6F02B
:1051600000B2002802DA00F5B47000B21880F0BD79
:105170002DE9F0470D4612498A88904202D301205A
:10518000BDE8F0870024C0EBC007C5F30728C5F3CE
:105190000746894608E02044EBB200B24246314659
:1051A00000F086F8641CA4B2D9F8080000EBC70030
:1051B000C1888088091A491CA142ECDC0020DFE785
:1051C000780000202DE9F047134D89461F46A98835
:1051D0009046884202D30120BDE8F0870024C0EB4E
:1051E000C0060BE000EBC6003B46808842462044E8
:1051F00000B2494600F05CF8641CA4B2E878C0EB49
:10520000C001A86800EBC101CA888988511A491CED
:10521000A142E7DC0020DFE7780000200A4A10B551
:105220000020938891680BE0C0EBC00251F8324037
:1052300024B151F83240641E41F83240401C80B223
:105240009842F1D310BD000078000020064900EB21
:10525000400000220B5C084442EA03424178807817
:1052600042EA012108437047580700200048704770
:1052700058070020072808D200EB400203480B0C17
:10528000835410440B0A4370817070475807002004
:1052900003B5072809D2054900EB40000844BDF8D2
:1052A000041001809DF8061081700CBD5807002085
:1052B00010B5072806D200EB4004034801552044EE
:1052C0004270837010BD0000580700200FB4054BDA
:1052D00010B503A9044A029800F06CF910BC5DF8FF
:1052E00014FB0000FD73000898010020490050EAFB
:1052F000C12018BF04204A0D18BF40F0010040F241
:10530000FF72B2EB515F08BF40F00200012808BFF6
:10531000052070470907090E002804DB00F1E02092
:1053200080F80014704700F00F0000F1E02080F8D2
:10533000141D70472DE9F0414F1E00EBC7010446D4
:10534000D1E9000115461E4637F006020DD02A4667
:105350003346FBF7F7F87F1E04EBC703D3E90023BE
:10536000FBF749F837F00602F1D1022F25D0042FC0
:1053700013D0062F18BFBDE8F0812A463346FBF74D
:10538000E1F8D4E90A23FBF736F82A463346FBF75F
:10539000D9F8D4E90823FBF72EF82A463346FBF761
:1053A000D1F8D4E90623FBF726F82A463346FBF763
:1053B000C9F8D4E90423FBF71EF82A463346FBF765
:1053C000C1F8D4E90223FBF716F82A463346FBF767
:1053D000B9F8D4E90023BDE8F041FBF70CB801228D
:1053E000FBF70BBBFBF707B800221346104611462C
:1053F000FBF794BA024A00201107FBF7FEBA00003F
:1054000001FDFFFF02E008C8121F08C1002AFAD1FF
:1054100070477047002001E001C1121F002AFBD134
:105420007047000001490860704700009C0100209F
:105430002DE9FF5F82B00021DDE90430020DDDF8C7
:1054400040B0034318D044F61050A2F2FF3242435A
:105450001514119801281FD0A5EB0B00401C5FEA22
:10546000000A4FF000064E4FDFF83891B046504624
:1054700015D5CAF1000413E0119801244AA30128AC
:1054800001D16FEA0B010298119AC0E90031C0E91D
:10549000024206B0BDE8F09FCBF10000DFE7044612
:1054A0000021404A491842EB0450CDE9001012E0B7
:1054B000E00707D032463B4640464946FBF742F8F4
:1054C0008046894632463B4610461946FBF73AF875
:1054D00006460F466410002CEAD1DDE90401DDE93F
:1054E0000023BAF1000F06DAFBF72CF842464B46D0
:1054F000FBF728F805E0FBF711FA42464B46FBF7AD
:105500000DFA04460E460022284BFBF7A5FA03D8F5
:105510004FF0FF30014607E00022254B2046314680
:10552000FAF769FFFBF780FA102409E0002C0ADB88
:105530000A220023FBF70CF9039B30321A55641E34
:1055400050EA0102F2D1641C039AC4F1110314441D
:10555000119A012A03D0012208430DD10AE0084321
:1055600004D000204FF0110B119072E7A3EB0B0554
:105570006D1E0DE05B4504DD4FF0000205F10105F5
:1055800004E003DA4FF00002A5F10105002AECD097
:1055900002981199C0E90231C0E9004579E700009D
:1055A000000014400000F03F300000000000F04315
:1055B0000000E03F2DE9FF4F95B09B468946064627
:1055C00000250FE2252877D100242746F84A01213B
:1055D000059400E0044316F8013F203B01FA03F074
:1055E0001042F7D130782A2811D06FF02F0330788D
:1055F000A0F13002092A16D8059A44F0020402EB01
:10560000820203EB42021044761C0590EFE759F842
:10561000042B0592002A03DA504244F4005405900A
:1056200044F00204761C30782E2816D116F8010FAB
:1056300044F004042A280DD06FF02F023078A0F136
:105640003003092B09D807EB870302EB4303C71884
:10565000761CF3E759F8047B761C30786C280FD061
:1056600006DC4C2817D068280DD06A2814D104E035
:10567000742810D07A280FD10DE044F400140AE009
:1056800044F4801401E044F440147278824202D160
:1056900004F58014761C761C307866280BD013DC59
:1056A000582877D009DC002875D04528F6D0462840
:1056B000F4D047281AD19DE118E0632835D064283A
:1056C00079D0652812D195E1702873D008DC67285D
:1056D000F1D069286FD06E280DD06F2806D1B5E0C3
:1056E00073282CD0752875D0782874D05A4617990D
:1056F00090476D1C75E1C4F30250022809D00328BD
:105700000DD0D9F8001004280DD00D6009F104095E
:1057100067E1D9F80010EA17C1E90052F6E7D9F8B5
:1057200000100D80F2E70D70F0E719F8041B8DF8FA
:10573000001000208DF80100EA46012003E059F82E
:1057400004AB4FF0FF3061074FF0000102D40DE0D1
:1057500008F101018846B9420FDA8045F8DB1AF8F2
:1057600008100029F4D108E008F1010188468142BF
:10577000FADB1AF808100029F6D105985B46A0EB71
:10578000080721463846179A00F094FA284400EB9F
:10579000080507E04DE029E10DE01AF8010B5A4633
:1057A00017999047B8F10108F7D25B462146384671
:1057B000179A13E142E00A220092C4F302524FF01A
:1057C000000A022A08D059F804CB032A4FEAEC71E8
:1057D0000AD00DE029E02AE009F1070121F00702D3
:1057E000F2E802C1914609E00FFA8CFC4FEAEC7135
:1057F000042A03D14FFA8CFC4FEAEC71002907DA36
:105800000A460021DCF1000C61EB02012D2202E0CE
:10581000220504D52B228DF80420012203E0E207A3
:1058200001D02022F7E7904659E00A2102E0102239
:105830000DE010214FF0000A00910BE010224FF014
:10584000000A44F004040827009203E008224FF005
:10585000000A0092C4F30252022A05D059F804CB80
:105860000021032A08D009E009F1070121F007020D
:10587000F2E802C1914605E01FFA8CFC042A01D12E
:105880000CF0FF0C4FF00008220728D5702806D036
:10589000009B83F0100353EA0A0305D00EE0402278
:1058A0008DF80420012208E05CEA010206D03022D3
:1058B0008DF804208DF8050002229046009B83F0AD
:1058C000080353EA0A030AD15CEA010201D1620724
:1058D00005D530228DF804204FF001087F1E58288E
:1058E00004D034A003900EA802900DE036A0F9E792
:1058F00053466046009AFAF72BFF84460398825C71
:105900000298401E029002705CEA0100F0D10298F9
:1059100006A9081A00F1200A600702D524F4803491
:1059200000E00127574502DDA7EB0A0000E0002058
:1059300000EB0A01009005984144401A0590E003ED
:1059400006D45B462146179A059800F0B3F9054442
:10595000002706E001A85A46C05D179990476D1CC4
:105960007F1C4745F6DBE0030CD55B462146179AC2
:10597000059800F09FF9054404E030205A46179935
:1059800090476D1C0099481E00900029F5DC08E046
:10599000029802995A460078491C0291179990473B
:1059A0006D1CBAF10001AAF1010AF1DC65E1000009
:1059B00009280100303132333435363738396162E5
:1059C00063646566000000003031323334353637A9
:1059D00038394142434445460000000000F058F980
:1059E0000544761C307800287FF4ECAD19B02846C9
:1059F000BDE8F08F620700D4062709F1070222F004
:105A0000070CFCE80223E14603F000485FEA080CBB
:105A100002D00FF2702C0DE05FEA045C02D50FF2A9
:105A2000682C07E05FEAC47C02D00FF2602C01E032
:105A3000AFF2700C4FF0FF3823F00043CDF850C0A8
:105A400065280CD006DC452809D046281DD04728FB
:105A50003DD13DE0662818D067287ED138E000218E
:105A6000112F01DB112000E0781CCDE9000106A90F
:105A70000EA8FFF7DDFCDDE90F010E9A039100216E
:105A8000009207F1010A04914DE04FF000400097A9
:105A9000CDE9011006A90EA8FFF7CAFCDDE90F0247
:105AA00003920E9B11990022DDF80CA00093049242
:105AB00011B9791C00EB010AB7EB0A0004D4C0F15C
:105AC000FF3007F1010A0490AAEB0700019044E0BF
:105AD000012F00DA01270021112F01DD112000E044
